:100000000FC100003EC100003CC100003AC1000029
:1000100038C1000036C1000034C1000032C1000008
:1000200030C100002EC100002CC100002AC1000018
:1000300028C1000026C1000024C1000022C1000028
:1000400020C100001EC100001CC100001AC1000038
:1000500018C1000016C1000014C100000C94221B3E
:1000600010C100000C94031A0C94DA190AC10000A4
:1000700008C1000006C1000004C1000002C1000068
:1000800000C10000FEC00000FCC00000FAC000007B
:10009000F8C00000F6C00000F4C00000F2C000008C
:1000A000F0C00000EEC00000ECC00000EAC000009C
:1000B000E8C00000E6C00000E4C00000E2C00000AC
:1000C000E0C00000DEC00000DCC00000DAC00000BC
:1000D000D8C00000D6C00000D4C00000D2C00000CC
:1000E000D0C0000046135E13D513C414E4140415E5
:1000F0000C15BA14671A6A1A591A5D1A611AA11AEC
:100100006E1A721A781A7C1A801A861A8A1A8E1A2D
:10011000A11A941A981A9C1A0000210024002700A2
:100120002A002D0030003300010100000401070106
:100130000A0100002200250028002B002E003100BB
:10014000340002010000050108010B010505050549
:10015000070508080808020202020A0A080804043F
:10016000040401010101010101010303030303036D
:100170000303040707070C0C0C0C0C0C0C0C0202FC
:10018000020206060606060606060B0B0B0B0B0BF9
:100190000B0B010210202008081020401020408086
:1001A000020102010804020101020408102040803B
:1001B00080402010080402018004020180402010C9
:1001C0000804020108040201010204081020408012
:1001D000010204081020408000000A0B02090C0DE7
:1001E0000E080703040100000000000000000000EA
:1001F00000000000000000000000000000000000FF
:1002000000000000121110000000000000000000BB
:100210000000000000000000000000000000D81FE7
:1002200011241FBECFEFD1E2DEBFCDBF00E00CBF77
:1002300026E0A2EEB2E001C01D92A83DB207E1F7B0
:1002400012E0A0E0B2E0EEECF4E400E00BBF02C08C
:1002500007900D92A23EB107D9F711E0C0E1D1E0BD
:1002600000E006C021970109802FFE010E9427228D
:10027000CF30D10780E00807A9F70E9480200C94B6
:100280006522BECECF93DF931F92CDB7DEB7DC01E0
:10029000ED91FC91008CF18DE02D41E050E0BE012C
:1002A0006F5F7F4F1995181619061CF4898190E02D
:1002B00002C08FEF9FEF0F90DF91CF910895CF9302
:1002C000DF931F92CDB7DEB76983DC01ED91FC911E
:1002D0000280F381E02D41E050E0BE016F5F7F4F6F
:1002E00019950F90DF91CF910895DC01ED91FC916C
:1002F000008CF18DE02D1994CF93DF931F92CDB731
:10030000DEB76983DC01ED91FC910280F381E02D81
:1003100041E050E0BE016F5F7F4F19950F90DF9174
:10032000CF910895FB0141505109460F571FE41723
:10033000F50778F4208130E0322F22276181260FE3
:10034000311D820F931F8217930708F4019632968E
:10035000EECFE417F50751F4208130E0322F222749
:10036000820F931F8217930708F401960895CF9385
:10037000DF931F92CDB7DEB7DC01ED91FC910088D1
:10038000F189E02D41E050E0BE016F5F7F4F19958C
:1003900097FD03C0898190E002C08FEF9FEF0F901F
:1003A000DF91CF910895FC01448555854115510594
:1003B00051F0FB01248535852115310521F081E0BF
:1003C0004217530709F080E00895DC011C96ED9177
:1003D000FC911D97309739F08181811106C0808191
:1003E00082958170089580E0089581E00895DC0190
:1003F000ED91FC91008CF18DE02D199591E089270C
:1004000008950F931F93CF93DF93EC018C010B5F43
:100410001F4F88810E946C1B1992C017D107C9F722
:10042000DF91CF911F910F910895CF93DF93EC014E
:10043000E881F9810688F789E02D1995882331F044
:100440008C859D850196DF91CF91DBCFDF91CF9198
:1004500008950F931F93CF93DF93EC01DC018D91EF
:100460008D010E946C1BFE01CE010496D8012D91D6
:100470008D012193E817F907C9F71C82DF91CF910D
:100480001F910F910895EF92FF920F931F93CF93B7
:10049000DF93EC01E881F9810688F789E02D199551
:1004A0008823B9F08C859D857C012FEFE21AF20A32
:1004B0008C010A5F1F4FC0E0D0E0F70181917F01FE
:1004C0000E94C41DC80FD91FE016F106B1F7CE0176
:1004D00002C080E090E0DF91CF911F910F91FF90DB
:1004E000EF9008950F931F93CF93DF931F92CDB793
:1004F000DEB78C01DC01ED91FC910688F789E02DD7
:100500001995882391F0D8011C96ED91FC911D97C7
:100510008181882351F041E050E0BE016F5F7F4F41
:100520000E941917898190E002C08FEF9FEF0F9012
:10053000DF91CF911F910F9108956F927F928F92CB
:100540009F92AF92BF92CF92DF92EF92FF920F9362
:100550001F93CF93DF937C015B01EA01DC01ED91F6
:10056000FC910688F789E02D1995882309F46EC05F
:10057000D7011C96ED91FC911D978181882309F488
:1005800068C06E010EE1BE016C197D096A0D7B1D0C
:10059000D7011C96ED91FC911D97A60181810E94C7
:1005A00019174C01F70164847584D30111961C91CD
:1005B000812F0E94C41D8816990679F5C818D9089C
:1005C000C301019646DFF701A485B5858C91282FDC
:1005D00030E02F70029FF001039FF00D1124E153D2
:1005E000FC4F918D94FF05C0982F907611F4806890
:1005F0008C93D7011C96ED91FC911D9781818111FF
:100600001FC0808186FF05C010821D961C921E921D
:100610001C97CE018C199D091EC0B5E01B9FF001EF
:100620001124E05BFB4F80819181880D991D91839E
:10063000808382819381881999099383828304C07E
:10064000C114D10409F09FCFCE0105C08FEF9FEFF9
:1006500002C080E090E0DF91CF911F910F91FF9059
:10066000EF90DF90CF90BF90AF909F908F907F9052
:100670006F900895CF93DF93EC018A89882369F006
:100680009A01AB016E857F850E94461D2E853F85B0
:10069000280F391F3F872E8702C080E090E0DF914E
:1006A000CF910895CF93DF93EC018C859D85892BA5
:1006B00019F480E090E024C0EA89EE23D1F381E0D0
:1006C0008B8B8E859F8525E0E29FF0011124E05BF6
:1006D000FB4F938382838C859D859093E702809363
:1006E000E60285E00E94CF0E80915C0690915D0647
:1006F000892BF9F2CE010E960E94261681E090E039
:10070000DF91CF910895CF93DF93DC011C96ED919B
:10071000FC911D973097B1F0EC011582148212867E
:1007200011861D861C8689890E946C1B88890E94FF
:100730006C1B8A890E946C1B2E9686E0FE0111922A
:100740008A95E9F7DF91CF9108950F931F93CF9387
:10075000DF93EC018B018C859D85892B41F460E052
:1007600070E080E090E00E94B3159D878C87EC8557
:10077000FD85309751F0102701271027158304833A
:100780002E96D287C18781E001C080E0DF91CF91B2
:100790001F910F910895EF92FF920F931F93CF93A4
:1007A000DF93C82FE0907106F12C84E1E81AF1087C
:1007B0002091700630E0322F2227E20EF31E48E02F
:1007C00050E06AE776E0C7018C0F911DABDDC131C7
:1007D00031F0C0918E06C695C695CC7301C0C8E0B5
:1007E000D0E0AE0162E876E09DDD8C01CE15DF053C
:1007F00008F04CC0A7014C1B5D0BBE016E5D7F4F26
:100800008091E5020E948A1DEC01219760E085E35A
:100810000E94391A8AE38EBD0DB407FEFDCFA801F0
:1008200060E070E06C177D07C8F41EBC0DB407FED5
:10083000FDCF2EB530E0322F22271EBC0DB407FEAF
:10084000FDCF8EB5280F311D420F531F421753079E
:1008500010F44F5F5F4F6E5F7F4FE4CF8A016C17DC
:100860007D0781F41EBC0DB407FEFDCF8EB590E070
:10087000982F88278A01080F191F0817190710F4E5
:100880000F5F1F4F61E085E30E94391A01151105C2
:1008900019F0902F812F02C08FEF9FEFDF91CF9142
:1008A0001F910F91FF90EF90089544E150E06EE6A4
:1008B00076E080E090E036DD009721F098278927E8
:1008C000982708958FEF9FEF0895EF92FF921F935F
:1008D000CF93DF938091E40281FF11C02091E20267
:1008E00030E040E656E060E070E08091E5020E9472
:1008F000461D8091E4028D7F8093E40215C08091B3
:100900005C0690915D060E94A31C8093E5028823FB
:1009100009F44CC020915C0630915D0640E656E03B
:1009200060E070E00E94461DE091E50285E0E89FEE
:10093000F0011124E05BFB4FC081D1812197E2805F
:10094000F380EC0EFD1ECE010E94461C182F88235A
:1009500021F060E0CE010E94311CBE0184E00E94C3
:10096000CD1BB70186E00E94CD1B48E06FE180E817
:100970000E948C1B8CE10E94AD1B6CE180E00E9408
:10098000F81B81FF05C048E06FE180EA0E948C1BE4
:10099000112321F0612FCE010E94311C8091E502CC
:1009A0000E946C1B1092E50281E001C080E0DF91A3
:1009B000CF911F91FF90EF900895CF92DF92EF9229
:1009C000FF920F931F93CF93DF938091E3028111E6
:1009D00059C089E30E94AD1B69E380E00E94F81BC7
:1009E000882309F44DC06091590570915A058B0117
:1009F0000A5F1F4F011528E0120710F00F5F174024
:100A000080E00E94CD1B60E08AE30E94F81B90E02A
:100A100090935A058093590560E08AE30E94F81B81
:100A20002091590530915A05382B30935A0520935F
:100A3000590560E08AE30E94F81BC82F60E08AE352
:100A40000E94F81BD82F60E08AE30E94F81BF82E62
:100A500040E46EE180E80E948C1BF7FE0EC010930C
:100A6000C5060093C4068C2F90E09D2B04979093AD
:100A7000C7068093C6068FEF03C00E94D91D80E091
:100A80008093E302C091E302CC2309F41FC181E00B
:100A90008093E4028C2F0E94C41D90935D06809386
:100AA0005C06892B09F406C142E650E060E676E078
:100AB0008C2F0E941917C0916C06D0916D06C8301A
:100AC000D10509F044C08091E3028093E502809152
:100AD0005C0690915D060E9790935D0680935C0690
:100AE000209144033091450380917A0690917B06D2
:100AF0008227932720913C0330913D038223932347
:100B0000892BC1F4209146033091470380917C06E4
:100B100090917D068227932720913E0330913F03D9
:100B200082239323892B31F466E676E08AE796E008
:100B30000E940F1F81E00E94CF0E80915C06909171
:100B40005D06892B09F4B6C00E941C1EB2C0C830D5
:100B500036E0D30709F0AEC080915C0690915D0647
:100B600010925D0610925C068A9708F49CC08091F2
:100B7000740690917506811541E0940729F081155E
:100B8000924009F474C08FC0209186063091870688
:100B900080914403909145032817390709F083C0D9
:100BA00020918806309189068091460390914703F1
:100BB0002817390709F077C066E776E08CE796E0FA
:100BC0000E940F1F80E092E0909375068093740658
:100BD00086E0E6E7F6E0A0E8B6E001900D928A959F
:100BE000E1F786E0EBE5F5E0A6E7B6E001900D92CF
:100BF0008A95E1F786E0EBE5F5E0A6E6B6E0019040
:100C00000D928A95E1F786E0E0E8F6E0A0E6B6E02E
:100C100001900D928A95E1F780917C0690917D0676
:100C2000909387068093860680917E0690917F063A
:100C300090938906809388068091440390914503A0
:100C400090937D0680937C068091460390914703A4
:100C500090937F0680937E06D0936D06C0936C06BA
:100C60008AE290E090935D0680935C061CC0209120
:100C7000860630918706809144039091450328179A
:100C8000390789F4209188063091890680914603BE
:100C9000909147032817390731F466E776E08CE72F
:100CA00096E00E940F1F80915C0690915D06892B53
:100CB00009F00BDE8091E302882341F08091E40289
:100CC00080FF04C00E94D91D1092E3020E94161BEF
:100CD0006B017C018091610590916205A091630593
:100CE000B0916405A7019601281B390B4A0B5B0BD9
:100CF000DA01C90180959095A095B0958827B7FD38
:100D000083959927AA27BB27C82F0FEC13E01093D0
:100D1000EE020093ED02CC2311F082E012C0D80164
:100D20005C96ED91FC915D9785859685A785B08948
:100D3000A7019601281B390B4A0B5B0B57FD0CC012
:100D400083E00E94CF0E80915C0690915D06892B16
:100D500019F00E941C1EB9DD025E1F4F34E00734FB
:100D60001307A9F6CC2331F1D701C60186509F4F56
:100D7000AF4FBF4F8093610590936205A0936305C9
:100D8000B0936405C1EAD3E0D093E702C093E602D2
:100D900085E00E94CF0E80915C0690915D06892BC4
:100DA00021F089859A850E9426162B9643E0CD3C3A
:100DB000D40751F7DF91CF911F910F91FF90EF90E2
:100DC000DF90CF900895DF92EF92FF920F931F93E1
:100DD000CF93DF9300D01F92CDB7DEB77C014B835A
:100DE0005C8369837A83E9DDF70181894B815C81CA
:100DF00069817A81882329F10E9419178C01F701F2
:100E0000D1888D2D0E94C41D0817190731F48D2D2E
:100E10000E946C1BF701118A12C085E0D89EF00178
:100E20001124E05BFB4F80819181800F911F9183A2
:100E3000808382819381801B910B93838283C8017D
:100E400002C080E090E00F900F900F900F90DF9124
:100E5000CF911F910F91FF90EF90DF900895CF9366
:100E6000DF93EC01AADD8989DF91CF910C94C41D39
:100E7000CF93DF93EC01A1DD89890E946C1B8889E7
:100E8000898B188ADF91CF910C94C41DCF92DF9289
:100E9000EF92FF920F931F93CF93DF9300D01F9297
:100EA000CDB7DEB78C016B017A0187DDF601828157
:100EB0009381A481B581892B8A2B8B2B41F1E1147D
:100EC000F10429F1828190E0982F88272381822BD9
:100ED0009827892798279A838983248130E0322FA5
:100EE00022274581242B3227232732273C832B833B
:100EF000D8011C96ED91FC911D977E2D6F2D30979A
:100F000029F1778366839183808333832283D80199
:100F10001C968D919C911D97892BA9F052968C91CE
:100F2000811111C086E096E00E94A31CF801828B1B
:100F30002AE230E03787268721E090E0811101C066
:100F400020E0822F15C080E090E012C0CE01019613
:100F50000E94B315D8011D969C938E931C97009701
:100F600091F39801225F3F4FFC0132872187CFCF59
:100F70000F900F900F900F90DF91CF911F910F91D5
:100F8000FF90EF90DF90CF9008952F923F924F9275
:100F90005F926F927F928F929F92AF92BF92CF9209
:100FA000DF92EF92FF920F931F93CF93DF93CDB712
:100FB000DEB765970FB6F894DEBF0FBECDBF7C01DC
:100FC0006B013A01FB01DB018D91882331F08E32F8
:100FD000D9F380538A30C0F334C020E030E080E0A1
:100FE00090E05AE041914423F9F0843091054CF5AA
:100FF0004E3269F42F3F310509F01CF5D301A80FDB
:10100000B91F12962C93019620E030E0EBCF529F4F
:10101000B001539F700D1124242F440F330B205324
:101020003109260F371FDECF2F3F310509F04CF471
:101030008430910534F4F301E80FF91F228381E035
:1010400020C0F701428153816481758180910B0634
:1010500090910C06A0910D06B0910E064817590705
:101060006A077B0709F4DEC10E94161B8701085F2F
:101070001F4F6F7077277C5FC80167DB813019F0E5
:1010800080E090E0D1C185E892E09A838983F701FE
:1010900082819381A481B5818B839C83AD83BE8340
:1010A00045E350E0BE016F5F7F4FC801EFDE892B43
:1010B00019F4C12CD12CB2C10E94161BF701778301
:1010C000668342E050E0B7016A5F7F4FC801D2DA21
:1010D00081E090E09A83898342E050E0BE016F5F37
:1010E0007F4FC801C7DA80E091E09A83898342E0AC
:1010F00050E0BE016F5F7F4FC801BCDA1A821982CF
:1011000042E050E0BE016F5F7F4FC801B3DA42E0BA
:1011100050E0BE016F5F7F4FC801ACDA42E050E0A3
:10112000BE016F5F7F4FC801A5DA5601F5018081CE
:10113000882301F1F6015F018191811113C04501FE
:101140008C189D081814190484F48D8641E050E031
:10115000BE01635F7F4FC8018DDAA401B601C801EB
:1011600089DA03C08E3239F7EACF6501FFEFCF1A73
:10117000DF0ADCCF1D8641E050E0BE01635F7F4F98
:10118000C80178DAC12CDD24D394DA82C98242E026
:1011900050E0BE016F5F7F4FC8016CDADA82C9820E
:1011A00042E050E0BE016F5F7F4FC80163DAC801C3
:1011B00079DA892B09F47DCF83E0A82EB12CF2E0F7
:1011C0006F0E711C0E94161B1B012C01C80150DE02
:1011D000181619068CF00E94161BDC01CB0182192F
:1011E0009309A409B50989389341A105B10508F00F
:1011F00003C10E944017EACFF70122803380448068
:101200005580B801CE01019612D58B819C81AD81AC
:10121000BE81281639064A065B0609F0F0C0C801EF
:10122000F6D4C59709F0EBC0C80119DE0C970CF491
:10123000E9C04CE050E0BE016F5F7F4FC801C3DDE5
:101240008B819C819827892798279A8B898BF70116
:101250004681578129813A814217530711F497FD3E
:1012600005C0C8016ED52CEF3FEFCEC08F709270D5
:10127000892B29F0C80165D52BEF3FEFC5C0CF8082
:10128000D884DC24CD24DC24C114D10429F4C80181
:1012900058D52AEF3FEFB8C0812C912C8D819E81CB
:1012A0009827892798278816990638F541E050E055
:1012B000BE01635F7F4FC80186DD8D85811113C03C
:1012C0008D858111F3CFC8010E944201C8010E949F
:1012D0004201C8010E944201C8010E944201FFEF81
:1012E0008F1A9F0ADBCF8D859FEF980F9D878823EC
:1012F00039F3C8010E944201F6CF812C912C41E0C4
:1013000050E0BE016D5E7F4FC8015DDD8B89982F77
:10131000907C61F4882371F08B899FEF980F9B8BF1
:10132000882341F0C8010E944201F6CFC8010E9403
:1013300042011B8A8B898111E2CF42E050E0BE015D
:10134000615F7F4FC8013FDD42E050E0BE01635F57
:101350007F4FC80138DDC8010E944201C8010E94C8
:101360004201C8010E944201C8010E94420142E0BC
:1013700050E0BE016F5E7F4FC80125DD8F859889E3
:1013800081159140E1F42D853E85322723273227B0
:1013900021303105A1F489899A898115944029F079
:1013A000C801CFD427EF3FEF2FC044E050E0B30196
:1013B000C8012C8B3D8B07DD2C893D8925C0412C34
:1013C000512C89899A899827892798274816590680
:1013D00038F4C8010E9442018FEF481A580AF1CF31
:1013E000EFEF8E1A9E0A8C149D0409F088CFC80175
:1013F000A8D426EF3FEF08C02FEF3FEF05C02EEF38
:101400003FEF02C02DEF3FEF6901F1E0AF1AB108E5
:1014100029F02FEFC216D20609F4D4CEC80173D931
:10142000C60102C08EEF9FEF65960FB6F894DEBF3F
:101430000FBECDBFDF91CF911F910F91FF90EF9025
:10144000DF90CF90BF90AF909F908F907F906F90E4
:101450005F904F903F902F900895CF92DF92EF9240
:10146000FF920F931F93CF93DF93CDB7DEB7A8976B
:101470000FB6F894DEBF0FBECDBF7C016A0105E850
:1014800012E01A8309831C861B8688EE93E0A0E095
:10149000B0E08D879E87AF87B88B8FE092E09A8708
:1014A00089871E8A1D8AFE01779686E0DF011D92DC
:1014B0008A95E9F71E8F0D8F1F8E18A219A21AA206
:1014C0008091050690910606A0910706B091080646
:1014D0008DA39EA3AFA3B8A78B839C83AD83BE834C
:1014E00018861F82AE01435E5F4FCE0101964DDD2F
:1014F00081309105B1F4D701ED91FC910088F1891B
:10150000E02D1CA30BA38F8D98A1A9A1BAA18DA337
:101510009EA3AFA3B8A7A601BE016D5D7F4FC70113
:101520001995A8960FB6F894DEBF0FBECDBFDF9118
:10153000CF911F910F91FF90EF90DF90CF90089582
:10154000CF92DF92EF92FF920F931F93CF93DF938F
:10155000CDB7DEB7A8970FB6F894DEBF0FBECDBFEC
:101560007C016A0105E812E01A8309831C861B8648
:1015700088EE93E0A0E0B0E08D879E87AF87B88BC0
:101580008FE092E09A8789871E8A1D8AFE017796EE
:1015900086E0DF011D928A95E9F71E8F0D8F1F8E61
:1015A00018A219A21AA28091050690910606A09190
:1015B0000706B09108068B839C83AD83BE83188693
:1015C0001F82AE01435E5F4FCE010196DEDC8130AB
:1015D0009105B1F4D701ED91FC910484F585E02DDE
:1015E0001CA30BA38F8D98A1A9A1BAA18DA39EA323
:1015F000AFA3B8A7A601BE016D5D7F4FC7011995C6
:10160000A8960FB6F894DEBF0FBECDBFDF91CF9185
:101610001F910F91FF90EF90DF90CF900895FC0104
:101620002481358180E0843099F0E82FF0E091E06A
:10163000980FEE0FFF1FE95BFB4F40815181452B57
:1016400029F480934F043183208304C0892FEBCF8A
:1016500080934F04B2C98F929F92AF92BF92CF9264
:10166000DF92EF92FF920F931F93CF938C015B0158
:101670007A016A014C0187E0880E911C9ED9011500
:10168000110509F452C0F8018081807609F04DC03F
:10169000F401C1E08191811102C0C15004C0CF5F4B
:1016A000C530C1F7C4E0F801EC0FF11D868181114E
:1016B0000DC080E092E00E94A31CF801EC0FF11D28
:1016C00086838823D9F2F80114861386A7014C1962
:1016D0005D094A0D5B1DF801638574859601EC0F69
:1016E000F11D86810E94461DC81AD90AF80123857A
:1016F0003485820F931F948783871C141D042CF458
:10170000C43009F4BBCFCF5FD4CF0E94161BDC01DD
:10171000CB010A96A11DB11DF80185879687A78781
:10172000B08BC7018C199D0902C08FEF9FEFCF913D
:101730001F910F91FF90EF90DF90CF90BF90AF90EF
:101740009F908F9008959F92AF92BF92CF92DF9219
:10175000EF92FF920F931F93CF93DF938C017B0146
:101760006A01C8EFD2E0A12CB12C8EE1982E28811D
:1017700024FF17C030E02F70929EF001939EF00D71
:101780001124E153FC4F24813581F8018481958136
:101790002817390731F4A601B701CE015CDFA80E86
:1017A000B91E6196F3E0CC33DF0709F7C501DF917D
:1017B000CF911F910F91FF90EF90DF90CF90BF904E
:1017C000AF909F900895FC018485958544CFCF9379
:1017D000DF931F92CDB7DEB7698341E050E0BE01D1
:1017E0006F5F7F4FFC018485958535DF0F90DF911A
:1017F000CF910895CF93DF93EC01DFD8EC85FD8581
:10180000309739F0808186FF06C081E09181911187
:1018100003C080E001C081E0DF91CF910895CF93B4
:10182000DF93EC018C859D85009781F0FC01208180
:10183000222361F001960E940102EC85FD859081D2
:1018400096FF02C0108202C0906290831D861C86A3
:10185000DF91CF91B2C8EF92FF920F931F93CF9376
:10186000DF938C017B01EA01DC01ED91FC910288A0
:10187000F389E02D1995F701828190E0982F882750
:101880002381822B982789279827248130E0322FC3
:1018900022274581242B3227232732277C2F6D2FA7
:1018A0004091CD035091CE034F5F5F4F4115FDE74F
:1018B0005F0710F040E050E1D42FC52FEFECF3E0CC
:1018C000A0E0A43059F0B18DBB2329F0E480F5806D
:1018D000EC16FD0649F3AF5F7E96F3CF5093CE032F
:1018E0004093CD0310924F0440E0C0E0D0E0AEE161
:1018F0004430C1F0A49FF0011124E153FC4F518DFD
:10190000511104C040934F04EF010EC0573031F421
:10191000209729F0B28D5A8D5B1708F0FE014F5FBA
:10192000EF01E6CF40934F04209719F480E090E058
:101930003FC042E0498F4091E8024C874091E90264
:101940004D874091EA024E874091EB024F8740E07D
:1019500052E05B8B4A8B5D8B4C8B41E050E0598BA6
:10196000488B1B8E4A8F43E0488F1E8A40E14F8B85
:101970004091CD035091CE035427452754275D83D2
:101980004C837F836E83998388833B832A83898DED
:101990008F7061F212D8898D8F708330C1F78C8D72
:1019A0009D8DD8011D969C938E931C9781E090E0AD
:1019B000DF91CF911F910F91FF90EF900895EF92DB
:1019C000FF920F931F93CF93DF93A091ED02B091FD
:1019D000EE025C96CD91DC915D975091EC022097E0
:1019E00049F556FF5EC0E8EFF2E080E090E020812C
:1019F00021111AC061E1689F9001699F300D112487
:101A0000E901C850DD4F8061888327503D4F80E158
:101A1000F90111928A95E9F7209709F442C05D9681
:101A2000DC93CE935C9706C0019671968430910545
:101A3000F1F637C051FF07C080915C0690915D06BA
:101A4000892B09F042C0888187FF0EC08F77888379
:101A50008091EC0282608093EC02E091ED02F091C3
:101A6000EE02818D8F7E818F8091EC0284FF6AC0AF
:101A7000CE0106960E9401028981882309F465C07F
:101A8000E091ED02F091EE02848195819F838E8337
:101A9000888180648883E091ED02F091EE02158EDA
:101AA000148EE12CF12CB70180915E0690915F06B7
:101AB0000E94781FF0925D06E0925C06DF91CF9164
:101AC0001F910F91FF90EF9008958881807609F023
:101AD000BACF8E010F5F1F4FF12CF8018081811169
:101AE0001EC080915C0690915D060E94A31CF801C7
:101AF00080838823A1F000915C0610915D062091FF
:101B00005E0630915F06205636404091E30260E069
:101B100070E00E94E71DF4E0FF1295CF0BC0F39434
:101B20000F5F1F4F25E0F212D8CF8091E4028E7F25
:101B30008093E402E091ED02F091EE02818D8061EC
:101B4000818F81CF87FF03C093CF1882A4CF80FFFE
:101B500004C0CE0106960E9429028091EC028C708E
:101B6000E9F18E818823D1F19F8191110FC0EB841F
:101B7000FC84E114F10409F496CF35E0839FF00171
:101B80001124E05BFB4FF382E28206C00E94C41D79
:101B90007C01892B09F487CF80915E0690915F06C6
:101BA000805696408093E202F701E80FF11DCF01C5
:101BB0000E94A31C8093E502882309F474CF6091EE
:101BC000E20270E0870120E030E04E810E94E71DD4
:101BD0008091E40282608093E40265CF888185FF72
:101BE00060CF8E8181110BC01882E091ED02F091DF
:101BF000EE02158E148E80E18093EC0252CFE091BC
:101C0000ED02F091EE02818D8061818F4ACFDC017F
:101C10001C96ED91FC911D97309731F0868197814C
:101C2000982789279827089580E090E00895CF931A
:101C3000DF93FC01EB01AC85BD85109791F0129606
:101C40009C91129713968C9113973C9111962C911D
:101C500045E852E051834083328323839483858314
:101C600008C085E892E091838083128213821482F7
:101C70001582CF01DF91CF910895EF92FF920F93DC
:101C80001F93CF93DF93E091E602F091E702C185C5
:101C9000D285209709F44EC0E090EC02E1FE2FC0FF
:101CA0008A8181112CC0809182069091830697834E
:101CB000868380917A0690917B06918380838091C0
:101CC0007C0690917D069383828380918606909115
:101CD000870698278927982708970E94A31CF82E23
:101CE0008A83882361F00E94C41D8C012AE230E0BF
:101CF0004091E30260E070E08F2D0E94E71DE3FE5B
:101D000019C08D818823B1F08C818093E5028AE22D
:101D10008093E202688179816A52710980915E063E
:101D200090915F06DF91CF911F910F91FF90EF90FF
:101D30000C94781FDF91CF911F910F91FF90EF903E
:101D40000895CF93DF93EC010E94DD0489890E94FE
:101D50006C1B198ADF91CF9108950F931F93CF9336
:101D6000DF931F92CDB7DEB78C010E94DD04F8012E
:101D70008189882361F041E050E0BE016F5F7F4FB1
:101D80000E941917019719F4898190E002C08FEF22
:101D90009FEF0F90DF91CF911F910F910895EF92D8
:101DA000FF921F93CF93DF93C091ED02D091EE028B
:101DB000843009F4CAC126E936E030935F062093E7
:101DC0005E063093590620935806833059F4898D66
:101DD0008F70833009F0BBC688899989892B09F0F7
:101DE000B6C67CC0823009F07DC08091EB028F5F67
:101DF0008093EB02811113C08091EA028F5F809380
:101E0000EA0281110CC08091E9028F5F8093E902A0
:101E1000811105C08091E8028F5F8093E8021092E3
:101E20005D0610925C0610925B0610925A06898D30
:101E3000982F9D7F953041F48A8D8F5F8A8F8837E8
:101E400009F085C6198E83C6882309F480C62889BF
:101E50003989232B09F43EC09A8D2FEF290F2A8F41
:101E6000911175C69B8D983031F02FEF280F2230DD
:101E700040F4953031F4198E80E88093EC029FDDB8
:101E800020C5953038F423E0092E01C0220F0A94B2
:101E9000EAF701C020E32A8F9F5F9B8F8F7083300A
:101EA000A1F048F4813009F439C3823009F04FC6FB
:101EB00010928F0636C3863009F4A0C4883009F426
:101EC0009DC4843009F043C699C484E08093EC0239
:101ED00076DD29C58F70833009F039C688E080939C
:101EE000EC02E5C4853019F5E091E602F091E702D5
:101EF00084819581892B09F42AC61092EE021092F2
:101F0000ED028AE896E090935F0680935E069093D8
:101F100059068093580610925B0610925A0610924A
:101F20005D0610925C0688E08093EC020DC1809102
:101F30006E06853409F00BC6C0917006D0E0DC2F28
:101F4000CC2780917106C80FD11D80915C069091BD
:101F50005D068C179D0708F4FAC5D0935D06C09303
:101F60005C06809174068F7309F0F1C510917506B7
:101F70001111EDC5E0904403F0904503E114F10424
:101F800031F48091460390914703892B21F12091F0
:101F9000770680917E0690917F06213161F48F3F14
:101FA0002FEF920741F420918006309181062F3F58
:101FB0003F4F09F452C08E159F0509F0C8C5209106
:101FC000800630918106809146039091470328173F
:101FD000390709F0BCC50E945504019609F0B7C540
:101FE00080917706863009F414C18131B1F18130D6
:101FF00009F0ADC580918206883009F0A8C510921D
:1020000082068091840690918506873F7FEF97072F
:1020100010F0099601C00896909385068093840677
:1020200080917A0690917B0690937F0680937E063E
:1020300080917C0690917D06909381068093800626
:10204000F0927B06E0927A068091460390914703D6
:1020500090937D0680937C067EC56C97D0935D0639
:10206000C0935C068AE896E090935F0680935E06D4
:102070008091880690918906892B99F42091840695
:1020800030918506409182065091830660917A06D0
:1020900070917B06A0917C06B0917D06E1EAF3E0A9
:1020A0000CC081E10E94CB03019609F050C5E6CF38
:1020B00084819581009731F43B9683E0ED3CF807ED
:1020C000B8F324C028173907B9F78681978100979C
:1020D00019F04817590781F780819181009729F4F9
:1020E000C281D381CD2B49F416C08F3F1FEF9107DA
:1020F00021F4C281D381219671F068177907E1F646
:1021000082819381A817B907B9F605C0F093E70259
:10211000E093E6021CC5F093E702E093E60210921A
:10212000EE021092ED0282E08093EC028AE896E0E3
:1021300090935F0680935E069093590680935806AD
:1021400010925B0610925A0698DD80915A06909183
:102150005B06009709F4FBC49C01245E3F4F30935B
:102160005D0620935C063093700620937106E09123
:10217000E602F091E70220852093760621E1209384
:102180007706089698278927982790938706809343
:102190008606109289061092880684819581909314
:1021A000830680938206868197819093850680932B
:1021B0008406809144039091450390937B0680931D
:1021C0007A06809146039091470390937D06809311
:1021D0007C068081918190937F0680937E06828128
:1021E0009381909381068093800686E996E0909390
:1021F0005F0680935E0681E10E94CB0380959095F7
:10220000009711F48FEF9FEF9093890680938806D3
:102210007BC486E00E94CB03019609F098C420910C
:1022200084063091850680918206909183066091A4
:102230007A0670917B06E0917C06F0917D06CFECEA
:10224000D3E0498D4423A9F0AC81BD812A173B0717
:1022500081F4AE81BF818A179B0759F4A881B981A7
:102260006A177B0731F4AA81BB81EA17FB0709F4DF
:102270006FC16E9644E0C734D40719F780918F067A
:102280008F738230E1F43093F7022093F60280E0FE
:10229000843099F0E82FF0E0EE0FFF1FE95BFB4F71
:1022A000408151818F5F2417350791F710924F04B9
:1022B00080E0C0E0D0E09EE17CC080934F0480913C
:1022C0008F0682FD44C484E180938F0688E290E00B
:1022D00090935D0680935C0680E580938E06309136
:1022E000890680918D0680938906209188068091C9
:1022F0008C068093880620938C06909187068091A7
:102300008B068093870690938B0680918606809338
:102310004F0440918A064093860680938A063F5F69
:1023200030938D0631110DC02F5F20938C06211143
:1023300008C09F5F90938B06911103C08F5F8093BD
:102340008A0680918206909183069093F70280938B
:10235000F6022091840630918506309383062093FF
:102360008206909385068093840680917A069091E8
:102370007B0690937F0680937E0680917C069091E9
:102380007D0690938106809380068091440390910E
:10239000450390937B0680937A0680914603909143
:1023A000470390937D0680937C0692C3473099F053
:1023B0008F5F8430F1F0282F30E0929FF001939FDF
:1023C000F00D1124E153FC4F418D4111EFCF80936B
:1023D0004F04EF0110C0209721F0528D4A8D451710
:1023E00038F7929FE001939FD00D1124C153DC4F29
:1023F000DFCF80934F04209709F4A9C3D093EE0256
:10240000C093ED0283E08A8F888F1E8A84E08F8BD1
:102410001B8E80918406909185069D838C8380918C
:102420008206909183069F838E8380917A06909195
:102430007B069983888380917C0690917D069B839F
:102440008A8381E0898F8091E8028C878091E902FC
:102450008D878091EA028E878091EB028F8781E0E1
:1024600090E0998B888B809189068B878091880674
:102470008A8780918706898780918606888781E090
:1024800090E00E94C11F80918E06982F907F913519
:1024900008F444C082958F7090E00597880F991FCB
:1024A000880F991F2091F502E12FF0E0E817F90756
:1024B0008CF5E05AF94F26A9211105C010934F045D
:1024C0001092F5022BC0213011F41F5FEDCF2230A6
:1024D000E1F437A93430C9F410934F042093F50286
:1024E00080AD90E0982F882721AD822B9093F70242
:1024F0008093F602813062E0960710F080E092E06F
:102500009B8B8A8B9D8B8C8B09C037A9332311F051
:10251000130FCACF10934F042093F50280E18093EC
:102520008F0680918F06826080938F0682E0809371
:10253000960694E0909397068093980610929906D9
:102540008CE290E090935D0680935C0680E66EC21C
:10255000D093EE02C093ED021092EC0230918F0600
:10256000132F147032FF03C0198E80E209C220912C
:102570008E0622952F70220F220F20934F048091F8
:102580005C0690915D064497821B910990935D06CD
:1025900080935C064F70423021F4232F2F73223139
:1025A000C9F0892B19F4832F8370A1F090918606CE
:1025B0008885981331C290918706898598132CC21B
:1025C000909188068A85981327C2909189068B85F9
:1025D000981322C234FF49C0688979896115710551
:1025E00009F443C0CE010C960E948B1F30918A06DD
:1025F0008091F102381339C020918B068091F2024C
:10260000281333C090918C068091F30298132DC04B
:1026100080918D064091F402841327C03C872D875A
:102620009E878F878B8D811119C09E89888D2A8DF9
:10263000821B292F269526952695821B980F9E8B07
:1026400087FD81952F89322F36953695231B820F72
:102650008F8B969596959695890F888F81E08093BC
:10266000EC02888D8A8F198A188A298DE22FEF70E3
:102670008E2F90E0FC013197E830F10508F067C239
:102680008827EE58FF4F8F4F0C9427228091EC0241
:1026900080FF5DC283E0898F80E48093EC02198A19
:1026A000188A80915C0690915D06009709F4FBC042
:1026B00022E42093EC020E94C11FF5C08091EC023D
:1026C00080FF6DC080918F068F73823109F067C0E3
:1026D00080918E06982F907F913508F444C08295A2
:1026E0008F7090E00597880F991F880F991F209190
:1026F000F502E12FF0E0E817F9078CF5E05AF94F01
:1027000026A9211105C010934F041092F5022BC089
:10271000213011F41F5FEDCF2230E1F437A93430BE
:10272000C9F410934F042093F50280AD90E0982FE8
:10273000882721AD822B9093F7028093F602813097
:1027400072E0970710F080E092E09B8B8A8B9D8B64
:102750008C8B09C037A9332311F0130FCACF109304
:102760004F042093F50283E0898F80918606888745
:10277000809187068987809188068A87809189065B
:102780008B8781E090E00E94C11F82E48093EC027D
:10279000198A188A10925D0610925C0684C080E245
:1027A0008093EC020CD9198E8ACD80918F0680FF20
:1027B00027C024FD25C088899989892B09F0C7C1C4
:1027C00080915C0690915D0601960E94C11F8091E8
:1027D000EC02982F90619093EC0220915C0630916E
:1027E0005D06232B19F082618093EC02E8D881E02A
:1027F00090E0998B888B88E0898F1B8E81E10DC1D9
:1028000085FF1DC08091940690E0982F8827309115
:102810009506832B40915E0650915F06480F591F25
:1028200050935F0640935E0640915C0650915D06B2
:10283000BA01681B790B70935D0660935C0640914A
:102840005C0650915D064115510551F024FD08C00C
:102850009091EC0292609093EC02CA010E94C11F19
:102860008091900690E0982F882720919106820F02
:10287000911D9093F7028093F6022C893D892817C9
:10288000390710F0892B21F43093F7022093F602D8
:102890008091F6029091F7029B8B8A8B8091EC02DB
:1028A000837009F454C110925B0610925A0687D8BF
:1028B0008091EC0285FF07C010925B0610925A06C9
:1028C000198E84E1AAC084FF0AC010925B061092A0
:1028D0005A0681E090E0998B888B84E08DCF20911F
:1028E0005A0630915B0621153105E1F080FF02C0E8
:1028F000198A188A88899989009781F48A899B891D
:102900008217930720F490935B0680935A06809178
:102910005A0690915B06998B888B04C090935B0656
:1029200080935A061B8E8091580690915906909379
:102930005F0680935E0680915A0690915B06892B14
:1029400059F088899989009739F0889690935D06A7
:1029500080935C0688E10BC08091EC0281FFF7C098
:1029600088E290E090935D0680935C0680E180931E
:102970008F065BC08091EC0280FFE9C0198E80E178
:102980008093EC021CD8E3C080915C0690915D06B8
:10299000009711F00E94C11F90918F068091EC0268
:1029A00090FF0BC080FF06C087E0898F1A8E198ABE
:1029B000188A19C086E0898F16C080FF1EC085E086
:1029C000898F198A188AC3C080915C0690915D0630
:1029D000009711F00E94C11F80918F0680FF0DC0EB
:1029E00087E0898F1A8E81E090E00E94C11F80E10C
:1029F0008093EC020E94DF0C0FC080915C069091E6
:102A00005D06892B49F4A3C08091EC0280FF9FC032
:102A100087E0898F1A8E9BC080E180938F0688E2C1
:102A200090E090935D0680935C0680E580938E062F
:102A3000888580938A06898580938B068A85809312
:102A40008C068B8580938D068C85809386068D857C
:102A5000809387068E85809388068F85809389066C
:102A600086E0809377068C819D8190938306809386
:102A700082068E819F819093850680938406809143
:102A800044039091450390937B0680937A0680914E
:102A900046039091470390937D0680937C0688813E
:102AA000998190937F0680937E068A819B81909383
:102AB000810680938006898D84FF05C0109291065F
:102AC0001092900605C082E08093900610929106C5
:102AD00080E48093760680915C0690915D069093E9
:102AE00070068093710610929506109294061092CB
:102AF00093061092920686E00E94CB0380959095F3
:102B0000909393068093920685E480936E061092CC
:102B10006F0610927506109274068091EF029091E4
:102B2000F00201969093F0028093EF029093720668
:102B30008093730610927906109278060E945504CD
:102B400080959095909379068093780604C01092B2
:102B50005D0610925C061092EC02DF91CF911F91FE
:102B6000FF90EF9008950F931F93CF93DF93DC01B5
:102B70002091CD033091CE032F5F3F4F21158DE77C
:102B8000380710F020E030E1522F432FE1EAF3E064
:102B900080E0843041F0C481D5818F5F3B96C417BB
:102BA000D507B9F7E9CF3093CE032093CD0390E05A
:102BB0008BE09430D1F0292F30E041E0490F829F23
:102BC000F001839FF00D1124EF55FC4FEF01249687
:102BD00004811581012B39F490934F04309741F40F
:102BE00080E090E02EC0942FE4CF90934F04F8CF74
:102BF0008091CD039091CE039827892798279983B8
:102C0000888377836683109729F410821182128259
:102C100013820BC08D919C911197918380831296A2
:102C20008D919C911397938382838BE0829FD00137
:102C3000839FB00D1124AF55BC4F80E418968C9340
:102C4000CF01DF91CF911F910F910895CF93DF9323
:102C5000EC01F2D720915C0630915D069091E40280
:102C60002A32310521F41092E5029D7F03C01D82B6
:102C70001C8292609093E402DF91CF910C946504E2
:102C8000CF92DF92EF92FF920F931F93CF93DF9338
:102C90006C017A018B01C0E0D0E0CE15DF0589F030
:102CA000D8016D918D01D601ED91FC910190F081DB
:102CB000E02DC6011995892B11F47E0102C02196E1
:102CC000ECCFC701DF91CF911F910F91FF90EF9053
:102CD000DF90CF90089586E695E09ED221E0892B83
:102CE00009F420E0822F08956115710579F0FB0148
:102CF00001900020E9F73197AF01461B570BDC012B
:102D0000ED91FC910280F381E02D199480E090E038
:102D100008954F925F926F927F92EF92FF920F937E
:102D20001F93CF93DF93CDB7DEB7A1970FB6F8947B
:102D3000DEBF0FBECDBF7C01FA01CB0119A222304C
:102D400008F42AE08E010F5D1F4F422E512C612C9A
:102D5000712CBF01A30192010E944322F901CA0113
:102D6000015011096A3014F4605D01C0695CD8013A
:102D70006C93232B242B252B61F7B801C701B4DFFB
:102D8000A1960FB6F894DEBF0FBECDBFDF91CF91F5
:102D90001F910F91FF90EF907F906F905F904F90F9
:102DA00008958F929F92AF92BF92CF92DF92EF924F
:102DB000FF920F931F93CF93DF937C01EB016C0184
:102DC00082E0C80ED11C4701E5E08E0E911C00E0A8
:102DD00010E0F60141916F0150E060E070E02AE000
:102DE000CE0197DF5C01E881F9810190F081E02D4F
:102DF0006EE2CE0119958A0D9B1D080F191FC8148C
:102E0000D90439F7F701458150E060E070E02AE02D
:102E1000CE017FDF800F911FDF91CF911F910F9126
:102E2000FF90EF90DF90CF90BF90AF909F908F90EA
:102E300008950F931F93CF93DF93EB0160E070E051
:102E400069D68C0160E085E314D38AE38EBD0DB4AE
:102E500007FEFDCFCE01800F911FC817D90739F0AB
:102E60001EBC0DB407FEFDCF2EB52993F6CF61E051
:102E700085E3FFD2C801DF91CF911F910F91089593
:102E80008F929F92AF92BF92CF92DF92EF92FF927A
:102E9000A8D34B015C0182E3C82ED12CE12CF12C8C
:102EA000A0D3DC01CB0188199909AA09BB09883E86
:102EB0009340A105B10558F021E0C21AD108E108FC
:102EC000F10888EE880E83E0981EA11CB11CC11485
:102ED000D104E104F10421F7FF90EF90DF90CF904F
:102EE000BF90AF909F908F9008959F92AF92BF92A6
:102EF000CF92DF92EF92FF920F931F93CF93DF93C6
:102F000000D000D0CDB7DEB78C016B017A0159013A
:102F10008DD3DC01CB0186509F4FAF4FBF4F8093C5
:102F2000610590936205A0936305B093640589E001
:102F300091E0E0E5F4E0DF019C011D92215030407A
:102F4000E1F781E098E0909351048093500461E0B0
:102F500085E30BD361E085E38CD261E083E305D3A5
:102F600061E084E302D360E082E3FFD261E085E3C5
:102F7000FCD260E083E37DD260E084E37AD280E536
:102F80008CBD8DB581608DBD4FEF60E08FEFC4D3F8
:102F900077DF10925A051092590560E070E088E0E2
:102FA000FCD360E070E08CE0F8D36FEF77E08AE06C
:102FB000F4D361EB88E30BD46FE370E388E2EDD3E5
:102FC00069EF77EF80E3E9D36DE070E080ECE5D363
:102FD00042E362EC80E8A0D362E17CE086ECDDD3E2
:102FE00062E184ECF4D36CED75E08AECD6D36091A9
:102FF000000284EEECD36091010285EEE8D360918B
:10300000020282EEE4D36091030283EEE0D360918A
:10301000040280EEDCD36091050281EED8D360E03B
:1030200071E080E105D48FE198D340EC6BE180E85A
:1030300073D344E06FE180E86FD366E774E084E126
:10304000F7D38091000280935B0580910102809309
:103050005C058091020280935D058091030280935C
:103060005E058091040280935F0580910502809344
:10307000600580E0E82FF0E0EE0FFF1FE95BFB4FFB
:10308000118210828F5F8430A9F780E09EE1989FC3
:10309000F0011124E153FC4F118E8F5F8430B9F79A
:1030A00080E094E09093CE038093CD0380E09BE09A
:1030B000989FF0011124EF55FC4F158214828F5F09
:1030C0008430B1F780934F041092A0039BE080916D
:1030D000A003883068F4989FF0011124E85BFC4F4E
:1030E00010821182128213828F5F8093A003EFCF30
:1030F000D50112969C90129713965C911397149693
:10310000BC91F5019581F701A2818381B48045814D
:10311000F601C280D380E480F580F801248130E09C
:10312000322F22276581262B3227232732276281DF
:1031300070E0762F66271381612B76276727762725
:1031400070934503609344033093470320934603F1
:10315000282F30E03A2B382723273227309341039A
:1031600020934003242F30E03B29342723273227A4
:103170003093430320934203252F30E0392935272C
:103180002327322730933D0320933C03892F90E07F
:103190009B2B98278927982790933F0380933E0382
:1031A000C0920506D0920606E0920706F092080645
:1031B00026960FB6F894DEBF0FBECDBFDF91CF913C
:1031C0001F910F91FF90EF90DF90CF90BF90AF9045
:1031D0009F900895FC01918D828D981761F0828DEA
:1031E000DF01A80FB11D5D968C91928D9F5F9F733B
:1031F000928F90E008958FEF9FEF0895FC01918DDD
:10320000828D981731F0828DE80FF11D858D90E049
:1032100008958FEF9FEF0895FC01918D228D892FE6
:1032200090E0805C9F4F821B91098F7399270895CE
:10323000FC01848DDF01A80FB11DA35ABF4F2C9153
:10324000848D90E001968F739927848FA689B78922
:103250002C93A089B1898C9180648C93938D848DFB
:10326000981306C00288F389E02D80818F7D8083CA
:103270000895EF92FF920F931F93CF93DF93EC018A
:1032800081E0888F9B8D8C8D981305C0E889F98922
:10329000808185FD23C0F62E0B8D10E00F5F1F4F40
:1032A0000F731127E02E8C8DE8120BC00FB607FCB0
:1032B000FACFE889F989808185FFF5CFCE01B8DFA3
:1032C000F2CF8B8DFE01E80FF11DE35AFF4FF08224
:1032D0000B8FEA89FB898081806207C0EE89FF89B4
:1032E0006083E889F98980818064808381E090E04F
:1032F000DF91CF911F910F91FF90EF900895CF93A1
:10330000DF93EC01888D8823C1F0EA89FB898081F5
:1033100085FD05C0A889B9898C9186FD0EC00FB6C0
:1033200007FCF5CF808185FFF2CFA889B9898C9100
:1033300085FFEDCFCE017CDFE8CFDF91CF910895FF
:1033400080E090E0892B19F0C6DC811125C080E077
:1033500090E0892B41F080E090E0892B21F00E94E1
:10336000000081111CC080E090E0892B41F080E0DA
:1033700090E0892B21F00E940000811113C080E0B1
:1033800090E0892BA1F080E090E0892B81F00E94F1
:10339000000081110AC008950E940000D8CF0E9449
:1033A0000000E1CF0E940000EACF0C9400000895D5
:1033B0000E942F221F920F920FB60F9211240BB66C
:1033C0000F922F933F934F935F936F937F938F93BE
:1033D0009F93AF93BF93EF93FF9386E695E028DF2B
:1033E000FF91EF91BF91AF919F918F917F916F91DD
:1033F0005F914F913F912F910F900BBE0F900FBE99
:103400000F901F9018951F920F920FB60F921124D4
:103410000BB60F922F938F939F93EF93FF93E091AF
:103420007605F09177058081E0917C05F0917D052E
:1034300082FD12C0908180917F058F5F8F732091F4
:103440008005821751F0E0917F05F0E0EA59FA4FCC
:10345000958F80937F0501C08081FF91EF919F91AF
:103460008F912F910F900BBE0F900FBE0F901F905A
:103470001895362F90E0FC01E852FE4F4491FC0174
:10348000EE56FE4F2491FC01E45BFE4F949199238C
:1034900009F46AC0442309F454C050E0FA0131979A
:1034A000E231F10508F04DC08827E658FF4F8F4FF5
:1034B000CEC7809180008F7707C0809180008F7D7C
:1034C00003C080918000877F809380003AC084B5DC
:1034D0008F7702C084B58F7D84BD33C08091B000EA
:1034E0008F7703C08091B0008F7D8093B00029C09A
:1034F000809190008F7707C0809190008F7D03C0EE
:1035000080919000877F809390001BC08091A000E5
:103510008F7707C08091A0008F7D03C08091A000AD
:10352000877F8093A0000DC0809120018F7707C016
:10353000809120018F7D03C080912001877F80933F
:103540002001E92FF0E0EE0FFF1FEE5CFE4FA5918A
:10355000B4918FB7F894EC91311103C020952E23CC
:1035600001C02E2B2C938FBF0895CF93DF9390E053
:10357000FC01EE56FE4F2491FC01E45BFE4F84916A
:10358000882361F190E0880F991FFC01E85EFE4FEF
:10359000C591D491FC01EE5CFE4FA591B4916111EF
:1035A00009C09FB7F8948881209582238883EC9185
:1035B0002E230BC0623061F49FB7F8943881822FBC
:1035C000809583238883EC912E2B2C939FBF06C07C
:1035D0008FB7F894E8812E2B28838FBFDF91CF918E
:1035E00008953FB7F8948091D4069091D506A091A4
:1035F000D606B091D70626B5A89B05C02F3F19F077
:103600000196A11DB11D3FBFBA2FA92F982F882762
:10361000820F911DA11DB11DBC01CD0142E0660FBD
:10362000771F881F991F4A95D1F708952FB7F894EF
:103630006091D0067091D1068091D2069091D30608
:103640002FBF08951F920F920FB60F9211242F9340
:103650003F938F939F93AF93BF938091D0069091A8
:10366000D106A091D206B091D3063091CF0623E0C7
:10367000230F2D3720F40196A11DB11D05C026E8AA
:10368000230F0296A11DB11D2093CF068093D00673
:103690009093D106A093D206B093D3068091D4061E
:1036A0009091D506A091D606B091D7060196A11D9E
:1036B000B11D8093D4069093D506A093D606B093FF
:1036C000D706BF91AF919F918F913F912F910F900E
:1036D0000FBE0F901F9018958823E9F0A0E5B4E085
:1036E00025E014969C91149798130DC095E0899F3E
:1036F000F0011124E05BFB4F848114968C931382BC
:10370000128214820895992331F0299FD001112447
:10371000A05BBB4FE6CF08950F931F93CF93DF932A
:103720001F92CDB7DEB7182F062F60E085E34983DF
:10373000A0DE802F8F71812B8EBD49810DB407FED5
:10374000FDCF4EBD0DB407FEFDCF61E085E30F90C8
:10375000DF91CF911F910F918CCE1F93CF93DF9369
:10376000182F1076C12FD0E02091060230E0C2174A
:10377000D30779F043E06FE180EACEDFAE0185E068
:10378000559547958A95E1F76FE180E8C5DF10937D
:103790000602DF91CF911F9108951F93CF93DF937E
:1037A0001F921F92CDB7DEB7182F69837A83D5DFBA
:1037B0004981612F80E4B0DF61E0610F7A81472F9A
:1037C00080E40F900F90DF91CF911F91A5CF1F93B1
:1037D000CF93DF931F92CDB7DEB7182F6983BDDF7C
:1037E0004981612F80E40F90DF91CF911F9194CF99
:1037F000CF93DF93C82FD62F60E085E33ADE8D2F7D
:103800008F71C82BCEBD0DB407FEFDCF1EBC0DB40D
:1038100007FEFDCFD7FD07C061E085E32ADE8EB548
:10382000DF91CF9108951EBC0DB407FEFDCFF4CFFC
:10383000CF93DF93EB01682F84EDC9DFBE0186EDE6
:10384000ACDFC7E3D0E08AEE88DF6AEE80E0D0DF4D
:1038500080FF04C0CE010197F1F7F5CFDF91CF9142
:103860000895CF93C62FBC0182E097DF60E085E327
:1038700000DE8AE78EBD0DB407FEFDCFCEBD0DB4D0
:1038800007FEFDCF61E085E3CF91F3CDBC0180E081
:1038900084DF60E085E3EDDD8AE38EBD0DB407FED5
:1038A000FDCF1EBC0DB407FEFDCF61E085E3E1DD79
:1038B0008EB50895CF92DF92EF92FF920F931F93F0
:1038C000CF93DF936C018B014130510569F4CB013B
:1038D000DDDF682FC601DF91CF911F910F91FF901F
:1038E000EF90DF90CF90BDCFEA01C60FD71F7E01CA
:1038F00081E0E81AF10880E150DFB60184E14DDF94
:103900000115184038F4E11488E0F80618F07E013B
:1039100088E0F81AB70182E140DF40E16FE180EA18
:10392000FBDE40E26FE180E8F7DE6FE180E060DF20
:1039300085FDFBCFDF91CF911F910F91FF90EF900D
:10394000DF90CF900895CF92DF92EF92FF920F9386
:103950001F93CF93DF938C016091500470915104B9
:103960006150784EC12C98E1D92EE0E5F4E080E07A
:10397000C0E0D0E045E09481992349F0499F90014F
:103980001124205B3B4FD9012D913C9101C09B013B
:10399000E080F1802E193F090280F381E02D2E1B7B
:1039A0003F0B2017310739F4B5E08B9FE00111245C
:1039B000C05BDB4F48C00217130748F42C153D05C8
:1039C00030F4489FE0011124C05BDB4F6901911185
:1039D00007C02097C1F5C0E5D4E085E0D82E1DC012
:1039E000499FF0011124E05BFB4F892FC4CFEA808F
:1039F000FB8028813981E20EF31ED89EE00111245C
:103A0000C05BDB4F68817981E616F70631F04A81A9
:103A10005B81C7014FDFF982E8828C818111E7CF9A
:103A2000209150043091510488819981281B390BD1
:103A30008A819B81281B390B2150384E2017310772
:103A400010F480E01AC0E5E5F4E091E022813381D2
:103A5000232B29F035969F5F9533C1F7F2CF4A812A
:103A60005B8128813981240F351F318320831383A3
:103A700002838C8184839C83892FDF91CF911F9156
:103A80000F91FF90EF90DF90CF900895CF92DF924B
:103A9000EF92FF920F931F93CF93DF937B018A01E5
:103AA000690125E0829FC0011124EC01C05BDB4F5E
:103AB000688179816E0D7F1D82E06FDE0A80DB8177
:103AC000C02DCE19DF09CC16DD0608F4E60160E052
:103AD00085E3CFDC8AE78EBD0DB407FEFDCFC801BC
:103AE0008C0F9D1F0817190741F0F80121918F01D4
:103AF0002EBD0DB407FEFDCFF5CF61E085E3B9DC47
:103B0000CE01DF91CF911F910F91FF90EF90DF9049
:103B1000CF900895EF92FF920F931F93CF93DF936F
:103B20008B017A018F3FC9F025E0829FE0011124CB
:103B3000C05BDB4F02C0C4ECD6E088819981B8013C
:103B4000680F791F80E029DE8A819B81801B910BA1
:103B5000E816F90690F4C70110C08091C406909150
:103B6000C506860F971F811528E0920720F3BC0138
:103B70006F5F7740C4ECD6E0E5CFDF91CF911F9126
:103B80000F91FF90EF900895882381F08F3F29F4E3
:103B90008091C6069091C706089595E0899FF0012F
:103BA0001124E05BFB4F82819381089580E090E0D7
:103BB00008956091590570915A056115710519F0C4
:103BC0006150710902C06FEF77E08CE0E6CD0F9392
:103BD0001F93DB01E42FA80190E0EF3FF9F065E0CF
:103BE000E69FF0011124E05BFB4F02C0E4ECF6E03D
:103BF0000190F081E02D2E0F3F1F65E0689FF001DE
:103C0000699FF00D1124E05BFB4F80819181B90128
:103C10008A0F9B1F4FDE1F910F91CBCFE091C406FF
:103C2000F091C506E20FF31FE11568E0F607F0F228
:103C30009F012F5F3740E1CF80917E0690917F06F4
:103C40008F3F2FEF920759F4209180063091810623
:103C50002F3F3F4F21F486E0EDE8F2E05AC020917B
:103C60004403309145032827392740913C03509164
:103C70003D0324233523232B91F46091800670911A
:103C8000810620914603309147032627372740912C
:103C90003E0350913F0324233523232B89F0809149
:103CA0004003909141039093CC068093CB06809182
:103CB0004203909143039093CE068093CD0608C0B3
:103CC0009093CC068093CB067093CE066093CD067E
:103CD0002091CB063091CC064091CD065091CE0676
:103CE00080E09BE001C08F5F883071F1989FF00108
:103CF0001124E85BFC4F608171812617370799F723
:103D0000628173814617570771F78093A003349639
:103D100086E0A0E6B6E001900D928A95E1F786E094
:103D2000EBE5F5E0A6E6B6E001900D928A95E1F7A5
:103D300088E090E090936D0680936C0680915C061D
:103D400090915D060E9666C08093A00346E050E019
:103D50006FEF70E080E696E08FD386E0E0E8F6E073
:103D6000DF01282F1D922A95E9F7EBE5F5E0A6E69D
:103D7000B6E0982F01900D929A95E1F7EBE5F5E00A
:103D8000A6E7B6E0982F01900D929A95E1F7209161
:103D9000CB063091CC06309387062093860620917F
:103DA000CD063091CE063093890620938806209167
:103DB00044033091450330937D0620937C06209187
:103DC00046033091470330937F0620937E0620E020
:103DD00031E0309375062093740630936F0620937C
:103DE0006E0628E030E030937106209370068093D1
:103DF000720684E08093730688E096E090936D06E7
:103E000080936C0686E996E090935F0680935E0649
:103E10008AE290E090935D0680935C060895EF92AD
:103E2000FF920F931F93CF93DF939C01FB0110929E
:103E3000A00390E08BE0983031F1899F700111244C
:103E4000E701C85BDC4F6881798161157105C9F0B4
:103E50004A815B8141155105A1F0D9010D911C9159
:103E600011970617170769F412966D917C911397B5
:103E70006417750731F49093A003D701A45BBC4F7E
:103E80002AC09F5FD8CF90E08BE0983091F0899F57
:103E9000E0011124C85BDC4F48815981452B39F47E
:103EA0004A815B81452B19F49093A0030AC09F5F60
:103EB000ECCF1092CA061092C9061092A003C8E473
:103EC000D3E0D9014D915D916D917C91DE014D93CF
:103ED0005D936D937D9386E001900D928A95E1F755
:103EE0001A86DF91CF911F910F91FF90EF90089567
:103EF0009C01AB0170935B0660935A061616170679
:103F00004CF480915806909159062817390711F002
:103F1000B901A9C20895FC012381260F2093F40260
:103F2000A72FBB2792819A0F9093F3023181309390
:103F3000F20240814093F102E92FF0E0EA17FB071B
:103F400048F481E0830F8093F202811103C04F5F38
:103F50004093F10230E077272617370788F49F5FF8
:103F60009093F30291110CC08091F2028F5F8093C5
:103F7000F202811105C08091F1028F5F8093F102FE
:103F80000895CF93DF93C091ED02D091EE02BC0172
:103F9000CE010896C0DFE1EFF2E080818887818161
:103FA000898782818A8783818B87DF91CF9108956A
:103FB000E0E1F6E085E892E091838083128213824B
:103FC00014821582E6E6F5E01382128248EE53E091
:103FD00060E070E0448355836683778323E532E0B5
:103FE0003183208325EC30E03587248724EC30E0D2
:103FF0003787268720EC30E0318B208B21EC30E0B6
:10400000338B228B22EC30E0358B248B26EC30E096
:10401000378B268B118E128E138E148EE6E1F6E00E
:10402000918380831282138214821582ECE1F6E080
:10403000918380831282138214821582E2E2F6E079
:10404000918380831282138214821582E3E0F6E06A
:10405000918380831282138214821582E8E2F6E053
:10406000918380831282138214821582E9E0F6E044
:10407000918380831282138214821582EEE2F6E02D
:10408000918380831282138214821582E2E5F6E026
:10409000918380831282138214821582ECE4F6E00D
:1040A0009183808340EC428338EA338321E0248388
:1040B00051EB5583E6E4F6E09183808342833383BA
:1040C00024832583E0E4F6E0918380834283338375
:1040D00024832583EAE3F6E0918380838FEF828354
:1040E000838314821582E4E3F6E01382128283E76D
:1040F00092E09183808380E097E1958384830895A3
:10410000CF93DF93CDB7DEB7A0970FB6F894DEBF9D
:104110000FBECDBF789484B5826084BD84B58160C4
:1041200084BD85B5826085BD85B5816085BD809182
:104130006E00816080936E001092810080918100FA
:1041400082608093810080918100816080938100F2
:10415000809180008160809380008091B1008460B4
:104160008093B1008091B00081608093B000809115
:104170009100826080939100809191008160809392
:104180009100809190008160809390008091A100C7
:1041900082608093A1008091A10081608093A10042
:1041A0008091A00081608093A000809121018260B5
:1041B0008093210180912101816080932101809170
:1041C000200181608093200180917A008460809337
:1041D0007A0080917A00826080937A0080917A00E0
:1041E000816080937A0080917A00806880937A0061
:1041F0001092C10005E812E01A83098380913C0601
:1042000090913D06A0913E06B0913F068B839C8322
:10421000AD83BE83188B0F87809142069091430631
:10422000A0914406B0914506898B9A8BAB8BBC8BD1
:104230001E8B0D8B8091480690914906A0914A06ED
:10424000B0914B068F8B988FA98FBA8F1C8F0B8FD5
:1042500080914E0690914F06A0915006B091510664
:104260008D8F9E8FAF8FB8A39E012F5F3F4FAE0102
:10427000415F5F4FBE016B5E7F4FCE014B960E9448
:10428000751784E396E00E940F0BE0917605F0919C
:10429000770582E08083E0917205F09173051082CA
:1042A000E0917405F09175058FEC808310927E0586
:1042B000E0917A05F0917B0586E08083E0917805B6
:1042C000F0917905808180618083E0917805F0919B
:1042D0007905808188608083E0917805F091790587
:1042E000808180688083E0917805F09179058081F4
:1042F0008F7D808363E972E086E695E00E94741604
:1043000030914403209145039091460380914703E7
:104310001A8309833B832C839D838E8366E675E035
:10432000CE0101960E94D11668EA72E086E695E019
:104330000E9474168EE1B82E98EEC92E93E0D92E05
:10434000E12CF12C03E312E0AA24A3940E94DD04E3
:104350002091380630913906E8EFF2E08181882318
:1043600031F1808184FF1CC0482F50E04F70B49E13
:10437000D001B59EB00D1124A153BC4F14964D91A0
:104380005C9115974217530759F41C821B82CD820A
:10439000DE82EF82F8861A830983FE87ED8716C0D6
:1043A00086FF05C0868197818217930771F3719606
:1043B00083E0EC33F80791F61C821B82CD82DE820B
:1043C000EF82F8861A8309831E861D86CE01019628
:1043D0000E94FA0B8823C1F180910F0681111EC043
:1043E000CE0101960E9415026BEA72E086E695E026
:1043F0000E94741668EA72E086E695E00E947416E0
:1044000060EC72E0CE0101960E94741668EA72E0D8
:10441000CE0101960E947416A0920F06CE0101965D
:104420000E944302181619067CF4CE0101960E94E0
:10443000B701982E682F84E396E00E947C01692DD5
:1044400086E695E00E9439190E94A0197FCFEE0FF1
:10445000FF1F881F8BBF0790F691E02D199481E014
:1044600090E0F89432C0FB01DC0102C001900D9293
:1044700041505040D8F70895DC0101C06D93415080
:104480005040E0F70895A1E21A2EAA1BBB1BFD01C4
:104490000DC0AA1FBB1FEE1FFF1FA217B307E40723
:1044A000F50720F0A21BB30BE40BF50B661F771F7B
:1044B000881F991F1A9469F760957095809590955B
:0E44C0009B01AC01BD01CF010895F894FFCF20
:1044CE00DEADBEEFFEEDFF01000000000000005F5C
:1044DE00013A032F074201AD0EA10EA50383034639
:1044EE00072D0A52033807E3067501170E070E0053
:1044FE00000000E70BE30B4302B701720215022B1B
:10450E000CA00A9D020F0CE501FA0BD301F7010076
:10451E00000000391940160C19EA18FE187F190010
:10452E00000000D8194016D819D819D819D8190072
:10453E000000007C01A30B0F0B00000000D81940F7
:10454E001600000000D11600000000D819FFFFFF72
:10455E00FFFFFF4368617420736572766572206198
:10456E006464726573733A000D0A005765206861C2
:10457E0076652061206E657720636C69656E7400C8
:10458E0048656C6C6F2C20636C69656E7420667266
:10459E006F6D2056697375616C2053747564696F05
:0245AE002100EA
:00000001FF
