:1000000099C10000C8C10000C6C10000C4C1000001
:10001000C2C10000C0C10000BEC10000BCC10000E0
:10002000BAC10000B8C10000B6C10000B4C10000F0
:10003000B2C10000B0C10000AEC10000ACC1000000
:10004000AAC10000A8C10000A6C10000A4C1000010
:10005000A2C10000A0C100009EC100000C946A1A59
:100060009AC100000C9412190C94E91894C1000074
:1000700092C1000090C100008EC100008CC1000040
:100080008AC1000088C1000086C1000084C1000050
:1000900082C1000080C100007EC100007CC1000060
:1000A0007AC1000078C1000076C1000074C1000070
:1000B00072C1000070C100006EC100006CC1000080
:1000C0006AC1000068C1000066C1000064C1000090
:1000D00062C1000060C100005EC100005CC10000A0
:1000E0005AC10000DA13F2136914581578159715E0
:1000F0009F154E1577197A1969196D197119B1196A
:100100007E19821988198C19901996199A199E19B5
:10011000B119A419A819AC1900407A10F35A00A01B
:10012000724E18090010A5D4E80000E876481700C0
:1001300000E40B54020000CA9A3B000000E1F50500
:10014000000080969800000040420F000000A0864A
:1001500001000000102700000000E803000000007C
:100160006400000000000A00000000000100000020
:1001700000002C76D888DC674F0823DFC1DFAE593A
:10018000E1B1B796E5E3E453C63AE651997696E8CD
:10019000E6C28426EB898C9B62ED407C6FFCEFBC51
:1001A0009C9F40F2BAA56FA5F490055A2AF75C937C
:1001B0006B6CF9676DC11BFCE0E40D47FEF520E6B2
:1001C000B500D0ED902E0300943577050080841E95
:1001D000080000204E0A000000C80C333333330FF0
:1001E000986E12831141EF8D2114893BE65516CF8D
:1001F000FEE6DB18D1844B381BF77C1D901DA4BB99
:10020000E424203284725E228100C9F124ECA1E54D
:100210003D27000020002300260029002C002F008D
:100220003200000100000301060109010505050572
:10023000070508080808020202020A0A080804045E
:10024000040401010101010101010303030303038C
:100250000303040707070C0C0C0C0C0C0C0C02021B
:10026000020206060606060606060B0B0B0B0B0B18
:100270000B0B0102102020080810204010204080A5
:10028000020102010804020101020408102040805A
:1002900080402010080402018004020180402010E8
:1002A0000804020108040201010204081020408031
:1002B00001020408102040800000210024002700D3
:1002C0002A002D0030003300010100000401070165
:1002D0000A0100002200250028002B002E0031001A
:1002E000340002010000050108010B0100000A0BA7
:1002F00002090C0D0E0807030401000000000000B5
:1003000000000000000000000000000000000000ED
:1003100000000000000000001211100000000000AA
:1003200000000000000000000000000000000000CD
:1003300000002D2411241FBECFEFD1E2DEBFCDBFC0
:1003400000E00CBF12E0A0E0B2E0ECEDF3E500E06D
:100350000BBF02C007900D92AA3DB107D9F726E066
:10036000AAEDB2E001C01D92A13EB207E1F711E093
:10037000CAE9D1E000E006C021970109802FFE0103
:100380000E94B827C939D10780E00807A9F70E9461
:100390005D210C94EC2934CECF93DF931F92CDB71F
:1003A000DEB7DC01ED91FC91048CF58DE02D41E090
:1003B00050E0BE016F5F7F4F1995181619061CF4A7
:1003C000898190E002C08FEF9FEF0F90DF91CF9176
:1003D0000895CF93DF931F92CDB7DEB76983DC0119
:1003E000ED91FC910280F381E02D41E050E0BE01EF
:1003F0006F5F7F4F19950F90DF91CF910895DC01CA
:10040000ED91FC91048CF58DE02D199480E0089518
:10041000CF93DF931F92CDB7DEB76983DC01ED91F7
:10042000FC910280F381E02D41E050E0BE016F5F5E
:100430007F4F19950F90DF91CF910895FB014150A7
:100440005109460F571FE417F50778F4208130E073
:10045000322F22276181260F311D820F931F8217B1
:10046000930708F401963296EECFE417F50751F49E
:10047000208130E0322F2227820F931F82179307AB
:1004800008F401960895CF93DF931F92CDB7DEB79E
:10049000DC01ED91FC910288F389E02D41E050E010
:1004A000BE016F5F7F4F199597FD03C0898190E072
:1004B00002C08FEF9FEF0F90DF91CF910895FC0165
:1004C000448555854115510551F0FB01248535853D
:1004D0002115310521F081E04217530709F080E032
:1004E0000895DC011C96ED91FC911D97309739F031
:1004F0008181811106C0808182958170089580E09C
:10050000089581E00895DC01ED91FC91028CF38D5A
:10051000E02D199591E089270895089580E090E0F5
:1005200008950F931F93CF93DF931F92CDB7DEB73C
:100530008C01DC01ED91FC91008CF18DE02D199581
:10054000882391F0D8011C96ED91FC911D97818133
:10055000882351F041E050E0BE016F5F7F4F0E9461
:10056000FC1E898190E002C08FEF9FEF0F90DF911A
:10057000CF911F910F9108950F931F93CF93DF9306
:10058000EC018C010B5F1F4F88810E94B41A1992F5
:10059000C017D107C9F7DF91CF911F910F9108952F
:1005A000CF93DF93EC01E881F981008CF18DE02D90
:1005B0001995882331F08C859D850196DF91CF9127
:1005C000DBCFDF91CF9108950F931F93CF93DF93EC
:1005D000EC01DC018D918D010E94B41AFE01CE0167
:1005E0000496D8012D918D012193E817F907C9F7D9
:1005F0001C82DF91CF911F910F9108956F927F928E
:100600008F929F92AF92BF92CF92DF92EF92FF9222
:100610000F931F93CF93DF937C015B01EA01DC0111
:10062000ED91FC91008CF18DE02D1995882309F452
:100630006EC0D7011C96ED91FC911D978181882396
:1006400009F468C06E010EE1BE016C197D096A0DE6
:100650007B1DD7011C96ED91FC911D97A601818110
:100660000E94FC1E4C01F70164847584D30111962D
:100670001C91812F0E940C1D8816990679F5C818C7
:10068000D908C3010196A0DFF701A485B5858C9137
:10069000282F30E02F70029FF001039FF00D1124EE
:1006A000EB5AFB4F918D94FF05C0982F907611F473
:1006B00080688C93D7011C96ED91FC911D978181E8
:1006C00081111FC0808186FF05C010821D961C927B
:1006D0001E921C97CE018C199D091EC0B5E01B9F70
:1006E000F0011124EA52FB4F80819181880D991D00
:1006F000918380838281938188199909938382836E
:1007000004C0C114D10409F09FCFCE0105C08FEF02
:100710009FEF02C080E090E0DF91CF911F910F9199
:10072000FF90EF90DF90CF90BF90AF909F908F9011
:100730007F906F900895EF92FF920F931F93CF9346
:10074000DF93EC01E881F981008CF18DE02D1995A2
:100750008823B9F08C859D857C012FEFE21AF20A7F
:100760008C010A5F1F4FC0E0D0E0F70181917F014B
:100770000E940C1DC80FD91FE016F106B1F7CE017B
:1007800002C080E090E0DF91CF911F910F91FF9028
:10079000EF900895CF93DF93EC018A89882369F065
:1007A0009A01AB016E857F850E948E1C2E853F8548
:1007B000280F391F3F872E8702C080E090E0DF912D
:1007C000CF910895CF93DF93EC018C859D85892B84
:1007D00019F480E090E024C0EA89EE23D1F381E0AF
:1007E0008B8B8E859F8525E0E29FF0011124EA52D4
:1007F000FB4F938382838C859D859093DF0280934A
:10080000DE0285E00E94630F8091460390914703CA
:10081000892BF9F2CE010E960E94B91681E090E084
:10082000DF91CF910895CF93DF93DC011C96ED917A
:10083000FC911D973097B1F0EC011582148212865D
:1008400011861D861C8689890E94B41A88890E9497
:10085000B41A8A890E94B41A2E9686E0FE0111927B
:100860008A95E9F7DF91CF9108950F931F93CF9366
:10087000DF93EC018B018C859D85892B41F460E031
:1008800070E080E090E00E9446169D878C87EC85A2
:10089000FD85309751F01027012710271583048319
:1008A0002E96D287C18781E001C080E0DF91CF9191
:1008B0001F910F910895EF92FF920F931F93CF9383
:1008C000DF93C82FE0905B03F12C84E1E81AF10874
:1008D00020915A0330E0322F2227E20EF31E48E027
:1008E00050E064E673E0C7018C0F911DA7DDC131B4
:1008F00031F0C0917803C695C695CC7301C0C8E0AD
:10090000D0E0AE016CE673E099DD8C01CE15DF0519
:1009100008F04CC0A7014C1B5D0BBE016E5D7F4F04
:100920008091DD020E94D21CEC01219760E085E3FA
:100930000E9448198AE38EBD0DB407FEFDCFA801C1
:1009400060E070E06C177D07C8F41EBC0DB407FEB4
:10095000FDCF2EB530E0322F22271EBC0DB407FE8E
:10096000FDCF8EB5280F311D420F531F421753077D
:1009700010F44F5F5F4F6E5F7F4FE4CF8A016C17BB
:100980007D0781F41EBC0DB407FEFDCF8EB590E04F
:10099000982F88278A01080F191F0817190710F4C4
:1009A0000F5F1F4F61E085E30E9448190115110593
:1009B00019F0902F812F02C08FEF9FEFDF91CF9121
:1009C0001F910F91FF90EF90089544E150E068E58A
:1009D00073E080E090E032DD009721F098278927CE
:1009E000982708958FEF9FEF0895EF92FF921F933E
:1009F000CF93DF938091DC0281FF11C02091DA0256
:100A000030E04AE453E060E070E08091DD020E9453
:100A10008E1C8091DC028D7F8093DC0215C080915A
:100A20004603909147030E94EB1B8093DD028823CD
:100A300009F44CC020914603309147034AE453E047
:100A400060E070E00E948E1CE091DD0285E0E89F8E
:100A5000F0011124EA52FB4FC081D1812197E2803D
:100A6000F380EC0EFD1ECE010E948E1B182F8823F2
:100A700021F060E0CE010E94791BBE0184E00E945B
:100A8000151BB70186E00E94151B48E06FE180E866
:100A90000E94D41A8CE10E94F51A6CE180E00E9459
:100AA000401B81FF05C048E06FE180EA0E94D41A34
:100AB000112321F0612FCE010E94791B8091DD026C
:100AC0000E94B41A1092DD0281E001C080E0DF9143
:100AD000CF911F91FF90EF900895CF92DF92EF9208
:100AE000FF920F931F93CF93DF938091DB028111CD
:100AF00059C089E30E94F51A69E380E00E94401B17
:100B0000882309F44DC06091DF057091E0058B01E9
:100B10000A5F1F4F011528E0120710F00F5F174002
:100B200080E00E94151B60E08AE30E94401B90E079
:100B30009093E0058093DF0560E08AE30E94401B0C
:100B40002091DF053091E005382B3093E0052093AC
:100B5000DF0560E08AE30E94401BC82F60E08AE363
:100B60000E94401BD82F60E08AE30E94401BF82EB1
:100B700040E46EE180E80E94D41AF7FE0EC01093A4
:100B8000AF030093AE038C2F90E09D2B04979093BE
:100B9000B1038093B0038FEF03C00E94211D80E05A
:100BA0008093DB02C091DB02CC2309F41FC181E0FA
:100BB0008093DC028C2F0E940C1D9093470380933E
:100BC0004603892B09F406C142E650E06AE473E06B
:100BD0008C2F0E94FC1EC0915603D0915703C83041
:100BE000D10509F044C08091DB028093DD02809141
:100BF0004603909147030E979093470380934603D3
:100C00002091CA033091CB038091640390916503D6
:100C1000822793272091C2033091C3038223932319
:100C2000892BC1F42091CC033091CD0380916603D0
:100C300090916703822793272091C4033091C503C5
:100C400082239323892B31F460E573E084E693E0FB
:100C50000E94581E81E00E94630F8091460390918C
:100C60004703892B09F4B6C00E94641DB2C0C83086
:100C700036E0D30709F0AEC0809146039091470358
:100C800010924703109246038A9708F49CC0809103
:100C90005E0390915F03811541E0940729F081156F
:100CA000924009F474C08FC0209170033091710399
:100CB0008091CA039091CB032817390709F083C0AC
:100CC00020917203309173038091CC039091CD03F6
:100CD0002817390709F077C060E673E086E693E0ED
:100CE0000E94581E80E092E090935F0380935E0321
:100CF00086E0E0E6F3E0AAE6B3E001900D928A9583
:100D0000E1F786E0E1EEF5E0A0E6B3E001900D92B8
:100D10008A95E1F786E0E1EEF5E0A0E5B3E0019029
:100D20000D928A95E1F786E0EAE6F3E0AAE4B3E003
:100D300001900D928A95E1F7809166039091670387
:100D4000909371038093700380916803909169037D
:100D500090937303809372038091CA039091CB03A5
:100D600090936703809366038091CC039091CD03A9
:100D70009093690380936803D0935703C0935603FD
:100D80008AE290E090934703809346031CC0209131
:100D90007003309171038091CA039091CB0328179F
:100DA000390789F420917203309173038091CC0349
:100DB0009091CD032817390731F460E673E086E699
:100DC00093E00E94581E8091460390914703892B1F
:100DD00009F00BDE8091DB02882341F08091DC0278
:100DE00080FF04C00E94211D1092DB020E945E1A47
:100DF0006B017C018091E7059091E805A091E905E0
:100E0000B091EA05A7019601281B390B4A0B5B0B31
:100E1000DA01C90180959095A095B0958827B7FD16
:100E200083959927AA27BB27C82F05E514E01093BF
:100E3000E6020093E502CC2311F082E012C0D80153
:100E40005C96ED91FC915D9785859685A785B08927
:100E5000A7019601281B390B4A0B5B0B57FD0CC0F1
:100E600083E00E94630F8091460390914703892B92
:100E700019F00E94641DB9DD025E1F4F34E00D3C85
:100E80001307A9F6CC2331F1D701C60186509F4F35
:100E9000AF4FBF4F8093E7059093E805A093E90516
:100EA000B093EA05C7E2D4E0D093DF02C093DE023C
:100EB00085E00E94630F8091460390914703892B40
:100EC00021F089859A850E94B9162B9644E0C33596
:100ED000D40751F7DF91CF911F910F91FF90EF90C1
:100EE000DF90CF9008950F931F93CF93DF931F92BE
:100EF000CDB7DEB78C01F1DDF8018189882361F07F
:100F000041E050E0BE016F5F7F4F0E94FC1E0197E1
:100F100019F4898190E002C08FEF9FEF0F90DF916D
:100F2000CF911F910F910895DF92EF92FF920F934F
:100F30001F93CF93DF9300D01F92CDB7DEB77C0114
:100F40004B835C8369837A83C8DDF70181894B8198
:100F50005C8169817A81882329F10E94FC1E8C01C1
:100F6000F701D1888D2D0E940C1D0817190731F447
:100F70008D2D0E94B41AF701118A12C085E0D89E07
:100F8000F0011124EA52FB4F80819181800F911F63
:100F90009183808382819381801B910B93838283D1
:100FA000C80102C080E090E00F900F900F900F906A
:100FB000DF91CF911F910F91FF90EF90DF900895F7
:100FC000CF93DF93EC0189DD8989DF91CF910C9478
:100FD0000C1DCF93DF93EC0180DD89890E94B41A48
:100FE0008889898B188ADF91CF910C940C1DCF9240
:100FF000DF92EF92FF920F931F93CF93DF9300D076
:101000001F92CDB7DEB78C016B017A0166DDF60168
:1010100082819381A481B581892B8A2B8B2B41F10D
:10102000E114F10429F1828190E0982F882723812F
:10103000822B9827892798279A838983248130E0F7
:10104000322F22274581242B3227232732273C8326
:101050002B83D8011C96ED91FC911D977E2D6F2D51
:10106000309729F17783668391838083338322834A
:10107000D8011C968D919C911D97892BA9F05296B1
:101080008C91811111C086E096E00E94EB1BF80163
:10109000828B2AE230E03787268721E090E08111B9
:1010A00001C020E0822F15C080E090E012C0CE0188
:1010B00001960E944616D8011D969C938E931C970C
:1010C000009791F39801225F3F4FFC0132872187FF
:1010D000CFCF0F900F900F900F90DF91CF911F9176
:1010E0000F91FF90EF90DF90CF9008952F923F9255
:1010F0004F925F926F927F928F929F92AF92BF9228
:10110000CF92DF92EF92FF920F931F93CF93DF93D3
:10111000CDB7DEB765970FB6F894DEBF0FBECDBF73
:101120007C016B013A01FB01DB018D91882331F0D9
:101130008E32D9F380538A30C0F334C020E030E0DF
:1011400080E090E05AE041914423F9F08430910529
:101150004CF54E3269F42F3F310509F01CF5D301EF
:10116000A80FB91F12962C93019620E030E0EBCF28
:10117000529FB001539F700D1124242F440F330B45
:1011800020533109260F371FDECF2F3F310509F0DD
:101190004CF48430910534F4F301E80FF91F2283F5
:1011A00081E020C0F7014281538164817581809183
:1011B000910690919206A0919306B09194064817DB
:1011C00059076A077B0709F4E2C10E945E1A87018A
:1011D000085F1F4F6F7077277C5FC80146DB813047
:1011E00019F080E090E0D5C18FE992E09A8389837D
:1011F000F70182819381A481B5818B839C83AD8328
:10120000BE8345E350E0BE016F5F7F4FC801EFDE54
:10121000892B19F4C12CD12CB6C10E945E1AF7019A
:101220007783668342E050E0B7016A5F7F4FC80171
:10123000B1DA81E090E09A83898342E050E0BE0118
:101240006F5F7F4FC801A6DA80E091E09A838983BF
:1012500042E050E0BE016F5F7F4FC8019BDA1A8207
:10126000198242E050E0BE016F5F7F4FC80192DA01
:1012700042E050E0BE016F5F7F4FC8018BDA42E071
:1012800050E0BE016F5F7F4FC80184DA5601F5015F
:101290008081882301F1F6015F018191811113C0E2
:1012A00045018C189D081814190484F48D8641E0BA
:1012B00050E0BE01635F7F4FC8016CDAA401B60144
:1012C000C80168DA03C08E3239F7EACF6501FFEF53
:1012D000CF1ADF0ADCCF1D8641E050E0BE01635F1C
:1012E0007F4FC80157DAC12CDD24D394DA82C9823A
:1012F00042E050E0BE016F5F7F4FC8014BDADA82F7
:10130000C98242E050E0BE016F5F7F4FC80142DA00
:10131000C80158DA892B09F47DCF83E0A82EB12CBF
:10132000F2E06F0E711C0E945E1A1B012C01C801B5
:1013300050DE18161906ACF00E945E1ADC01CB01D3
:1013400082199309A409B50989389341A105B1050A
:1013500008F007C162E370E080E090E00E94261A86
:10136000E6CFF7012280338044805580B801CE015A
:10137000019613D58B819C81AD81BE8128163906DB
:101380004A065B0609F0F0C0C801F7D4C59709F01A
:10139000EBC0C80115DE0C970CF4E9C04CE050E03E
:1013A000BE016F5F7F4FC801BFDD8B819C81982795
:1013B000892798279A8B898BF70146815781298144
:1013C0003A814217530711F497FD05C0C8016FD544
:1013D0002CEF3FEFCEC08F709270892B29F0C8019F
:1013E00066D52BEF3FEFC5C0CF80D884DC24CD2459
:1013F000DC24C114D10429F4C80159D52AEF3FEFE8
:10140000B8C0812C912C8D819E819827892798279F
:101410008816990638F541E050E0BE01635F7F4FC2
:10142000C80182DD8D85811113C08D858111F3CFB7
:10143000C8010E94CC01C8010E94CC01C8010E94D1
:10144000CC01C8010E94CC01FFEF8F1A9F0ADBCFAD
:101450008D859FEF980F9D87882339F3C8010E94DF
:10146000CC01F6CF812C912C41E050E0BE016D5EA5
:101470007F4FC80159DD8B89982F907C61F48823B8
:1014800071F08B899FEF980F9B8B882341F0C801E7
:101490000E94CC01F6CFC8010E94CC011B8A8B8927
:1014A0008111E2CF42E050E0BE01615F7F4FC80191
:1014B0003BDD42E050E0BE01635F7F4FC80134DD99
:1014C000C8010E94CC01C8010E94CC01C8010E9441
:1014D000CC01C8010E94CC0142E050E0BE016F5E29
:1014E0007F4FC80121DD8F85988981159140E1F4F6
:1014F0002D853E8532272327322721303105A1F45F
:1015000089899A898115944029F0C801D0D427EFA0
:101510003FEF2FC044E050E0B301C8012C8B3D8B5E
:1015200003DD2C893D8925C0412C512C89899A895C
:101530009827892798274816590638F4C8010E9429
:10154000CC018FEF481A580AF1CFEFEF8E1A9E0A9E
:101550008C149D0409F088CFC801A9D426EF3FEF71
:1015600008C02FEF3FEF05C02EEF3FEF02C02DEF79
:101570003FEF6901F1E0AF1AB10829F02FEFC21671
:10158000D20609F4D0CEC8014ED9C60102C08EEFF2
:101590009FEF65960FB6F894DEBF0FBECDBFDF910B
:1015A000CF911F910F91FF90EF90DF90CF90BF9060
:1015B000AF909F908F907F906F905F904F903F90F3
:1015C0002F900895CF92DF92EF92FF920F931F9387
:1015D000CF93DF93CDB7DEB7A8970FB6F894DEBFF1
:1015E0000FBECDBF7C016A010FE912E01A830983A7
:1015F0001C861B8688EE93E0A0E0B0E08D879E8776
:10160000AF87B88B81E192E09A8789871E8A1D8A0D
:10161000FE01779686E0DF011D928A95E9F71E8F1D
:101620000D8F1F8E18A219A21AA280918B0690917D
:101630008C06A0918D06B0918E068DA39EA3AFA3BC
:10164000B8A78B839C83AD83BE8318861F82AE01AF
:10165000435E5F4FCE01019649DD81309105B1F4C3
:10166000D701ED91FC910488F589E02D1CA30BA313
:101670008F8D98A1A9A1BAA18DA39EA3AFA3B8A74E
:10168000A601BE016D5D7F4FC7011995A8960FB6E3
:10169000F894DEBF0FBECDBFDF91CF911F910F91A8
:1016A000FF90EF90DF90CF900895CF92DF92EF926E
:1016B000FF920F931F93CF93DF93CDB7DEB7A89719
:1016C0000FB6F894DEBF0FBECDBF7C016A010FE9F3
:1016D00012E01A8309831C861B8688EE93E0A0E043
:1016E000B0E08D879E87AF87B88B81E192E09A87C3
:1016F00089871E8A1D8AFE01779686E0DF011D928A
:101700008A95E9F71E8F0D8F1F8E18A219A21AA2B3
:1017100080918B0690918C06A0918D06B0918E06DB
:101720008B839C83AD83BE8318861F82AE01435E8C
:101730005F4FCE010196DADC81309105B1F4D7011B
:10174000ED91FC910684F785E02D1CA30BA38F8DF2
:1017500098A1A9A1BAA18DA39EA3AFA3B8A7A601E2
:10176000BE016D5D7F4FC7011995A8960FB6F8941D
:10177000DEBF0FBECDBFDF91CF911F910F91FF90C4
:10178000EF90DF90CF900895FC012481358180E0B7
:10179000843099F0E82FF0E091E0980FEE0FFF1FF2
:1017A000E353FB4F40815181452B29F48093D504AD
:1017B0003183208304C0892FEBCF8093D5048DC95A
:1017C0008F929F92AF92BF92CF92DF92EF92FF9251
:1017D0000F931F93CF938C015B017A016A014C0137
:1017E00087E0880E911C79D90115110509F452C0C2
:1017F000F8018081807609F04DC0F401C1E081914B
:10180000811102C0C15004C0CF5FC530C1F7C4E030
:10181000F801EC0FF11D868181110DC080E092E08E
:101820000E94EB1BF801EC0FF11D86838823D9F28F
:10183000F80114861386A7014C195D094A0D5B1D3A
:10184000F801638574859601EC0FF11D86810E9475
:101850008E1CC81AD90AF80123853485820F931F7C
:10186000948783871C141D042CF4C43009F4BBCF67
:10187000CF5FD4CF0E945E1ADC01CB010A96A11D76
:10188000B11DF80185879687A787B08BC7018C1992
:101890009D0902C08FEF9FEFCF911F910F91FF9095
:1018A000EF90DF90CF90BF90AF909F908F90089572
:1018B0009F92AF92BF92CF92DF92EF92FF920F93DF
:1018C0001F93CF93DF938C017B016A01C0EFD2E0BD
:1018D000A12CB12C8EE1982E288124FF17C030E076
:1018E0002F70929EF001939EF00D1124EB5AFB4F46
:1018F00024813581F801848195812817390731F4D5
:10190000A601B701CE015CDFA80EB91E6196F3E017
:10191000C433DF0709F7C501DF91CF911F910F9104
:10192000FF90EF90DF90CF90BF90AF909F90089581
:10193000FC018485958544CFCF93DF931F92CDB76B
:10194000DEB7698341E050E0BE016F5F7F4FFC016D
:101950008485958535DF0F90DF91CF910895CF93E2
:10196000DF93EC01BAD8EC85FD85309739F08081A2
:1019700086FF06C081E09181911103C080E001C023
:1019800081E0DF91CF910895CF93DF93EC018C85B7
:101990009D85009781F0FC012081222361F0019652
:1019A0000E94BC02EC85FD85908196FF02C01082EA
:1019B00002C0906290831D861C86DF91CF918DC8F6
:1019C000EF92FF920F931F93CF93DF938C017B01D4
:1019D000EA01DC01ED91FC910488F589E02D19956F
:1019E000F701828190E0982F88272381822B982706
:1019F00089279827248130E0322F22274581242B04
:101A00003227232732277C2F6D2F4091530450918A
:101A100054044F5F5F4F4115FDE75F0710F040E052
:101A200050E1D42FC52FE5E5F4E0A0E0A43059F053
:101A3000B18DBB2329F0E480F580EC16FD0649F357
:101A4000AF5F7E96F3CF50935404409353041092AB
:101A5000D50440E0C0E0D0E0AEE14430C1F0A49F46
:101A6000F0011124EB5AFB4F518D511104C04093EA
:101A7000D504EF010EC0573031F4209729F0B28D14
:101A80005A8D5B1708F0FE014F5FEF01E6CF4093E0
:101A9000D504209719F480E090E040C042E0498FDF
:101AA0004091E0024C874091E1024D874091E20273
:101AB0004E874091E3024F8740E052E05B8B4A8BB8
:101AC0005D8B4C8B41E050E0598B488B1B8E4A8FCD
:101AD00043E0488F1E8A40E14F8B40915304509160
:101AE00054045427452754275D834C837F836E839A
:101AF000998388833B832A83898D8F7061F20E944A
:101B00006D05898D8F708330B9F78C8D9D8DD801CF
:101B10001D969C938E931C9781E090E0DF91CF916E
:101B20001F910F91FF90EF900895EF92FF920F9306
:101B30001F93CF93DF93A091E502B091E6025C96EC
:101B4000CD91DC915D975091E402209749F556FFC5
:101B50005EC0E0EFF2E080E090E0208121111AC049
:101B600061E1689F9001699F300D1124E901C05126
:101B7000DD4F806188832F503D4F80E1F901119244
:101B80008A95E9F7209709F442C05D96DC93CE93DD
:101B90005C9706C00196719684309105F1F637C0C6
:101BA00051FF07C08091460390914703892B09F0AC
:101BB00042C0888187FF0EC08F7788838091E402BE
:101BC00082608093E402E091E502F091E602818D6B
:101BD0008F7E818F8091E40284FF6AC0CE010696D9
:101BE0000E94BC028981882309F465C0E091E50266
:101BF000F091E602848195819F838E838881806441
:101C00008883E091E502F091E602158E148EE12CB6
:101C1000F12CB70180914803909149030E94C11EA5
:101C2000F0924703E0924603DF91CF911F910F910D
:101C3000FF90EF9008958881807609F0BACF8E01E9
:101C40000F5F1F4FF12CF801808181111EC0809120
:101C50004603909147030E94EB1BF8018083882381
:101C6000A1F0009146031091470320914803309161
:101C700049032A5433404091DB0260E070E00E9447
:101C80002F1DF4E0FF1295CF0BC0F3940F5F1F4F91
:101C900025E0F212D8CF8091DC028E7F8093DC02A7
:101CA000E091E502F091E602818D8061818F81CF24
:101CB00087FF03C093CF1882A4CF80FF04C0CE015A
:101CC00006960E94E4028091E4028C70E9F18E8114
:101CD0008823D1F19F8191110FC0EB84FC84E11422
:101CE000F10409F496CF35E0839FF0011124EA5204
:101CF000FB4FF382E28206C00E940C1D7C01892BFF
:101D000009F487CF80914803909149038A54934006
:101D10008093DA02F701E80FF11DCF010E94EB1B5F
:101D20008093DD02882309F474CF6091DA0270E0B9
:101D3000870120E030E04E810E942F1D8091DC025F
:101D400082608093DC0265CF888185FF60CF8E81C1
:101D500081110BC01882E091E502F091E602158E28
:101D6000148E80E18093E40252CFE091E502F0917D
:101D7000E602818D8061818F4ACFDC011C96ED9156
:101D8000FC911D97309731F086819781982789279C
:101D90009827089580E090E00895CF93DF93FC01A9
:101DA000EB01AC85BD85109791F012969C9112972E
:101DB00013968C9113973C9111962C914FE952E018
:101DC00051834083328323839483858308C08FE9C2
:101DD00092E0918380831282138214821582CF0154
:101DE000DF91CF910895EF92FF920F931F93CF93BE
:101DF000DF93E091DE02F091DF02C185D28520976A
:101E000009F44EC0E090E402E1FE2FC08A81811106
:101E10002CC080916C0390916D0397838683809191
:101E20006403909165039183808380916603909110
:101E30006703938382838091700390917103982745
:101E40008927982708970E94EB1BF82E8A838823FE
:101E500061F00E940C1D8C012AE230E04091DB020F
:101E600060E070E08F2D0E942F1DE3FE19C08D8170
:101E70008823B1F08C818093DD028AE28093DA02BC
:101E8000688179816A527109809148039091490370
:101E9000DF91CF911F910F91FF90EF900C94C11E95
:101EA000DF91CF911F910F91FF90EF900895CF9305
:101EB000DF93EC010E946D0589890E94B41A198A8A
:101EC000DF91CF910895EF92FF921F93CF93DF930D
:101ED000C091E502D091E602843009F4CAC120E83D
:101EE00033E0309349032093480330934303209316
:101EF0004203833059F4898D8F70833009F0BAC65C
:101F000088899989892B09F0B5C67CC0823009F08F
:101F10007DC08091E3028F5F8093E302811113C043
:101F20008091E2028F5F8093E20281110CC0809168
:101F3000E1028F5F8093E102811105C08091E00290
:101F40008F5F8093E0021092470310924603109235
:101F5000450310924403898D982F9D7F953041F45D
:101F60008A8D8F5F8A8F883709F084C6198E82C662
:101F7000882309F47FC628893989232B09F43EC0B8
:101F80009A8D2FEF290F2A8F911174C69B8D98304F
:101F900031F02FEF280F223040F4953031F4198EB4
:101FA00080E88093E402C1DD20C5953038F423E059
:101FB000092E01C0220F0A94EAF701C020E32A8FFC
:101FC0009F5F9B8F8F708330A1F048F4813009F4BC
:101FD00039C3823009F04EC61092790336C3863079
:101FE00009F4A0C4883009F49DC4843009F042C6C5
:101FF00099C484E08093E40298DD29C58F70833012
:1020000009F038C688E08093E402E5C4853019F50C
:10201000E091DE02F091DF0284819581892B09F441
:1020200029C61092E6021092E50284E793E09093AD
:102030004903809348039093430380934203109293
:10204000450310924403109247031092460388E020
:102050008093E4020DC180915803853409F00AC6CB
:10206000C0915A03D0E0DC2FCC2780915B03C80FCE
:10207000D11D80914603909147038C179D0708F46A
:10208000F9C5D0934703C093460380915E038F73D5
:1020900009F0F0C510915F031111ECC5E090CA037F
:1020A000F090CB03E114F10431F48091CC039091D2
:1020B000CD03892B21F120916103809168039091D8
:1020C0006903213161F48F3F2FEF920741F4209192
:1020D0006A0330916B032F3F3F4F09F452C08E15B6
:1020E0009F0509F0C7C520916A0330916B03809169
:1020F000CC039091CD032817390709F0BBC50E9486
:10210000E504019609F0B6C580916103863009F4B3
:1021100014C18131B1F1813009F0ACC580916C03FB
:10212000883009F0A7C510926C0380916E039091DE
:102130006F03873F7FEF970710F0099601C008965D
:1021400090936F0380936E03809164039091650375
:10215000909369038093680380916603909167036D
:1021600090936B0380936A03F0926503E09264039B
:102170008091CC039091CD03909367038093660385
:102180007DC56C97D0934703C093460384E793E0E3
:102190009093490380934803809172039091730355
:1021A000892B99F420916E0330916F0340916C0359
:1021B00050916D036091640370916503A091660373
:1021C000B0916703E7E2F4E00CC081E10E945B0498
:1021D000019609F04FC5E6CF84819581009731F4CF
:1021E0003B9684E0E335F807B8F324C02817390795
:1021F000B9F786819781009719F04817590781F739
:1022000080819181009729F4C281D381CD2B49F43B
:1022100016C08F3F1FEF910721F4C281D381219611
:1022200071F068177907E1F682819381A817B907E1
:10223000B9F605C0F093DF02E093DE021BC5F09310
:10224000DF02E093DE021092E6021092E50282E0E5
:102250008093E40284E793E09093490380934803DA
:1022600090934303809342031092450310924403DA
:10227000BADD8091440390914503009709F4FAC4B4
:102280009C01245E3F4F30934703209346033093D5
:102290005A0320935B03E091DE02F091DF02208578
:1022A0002093600321E120936103089698278927F2
:1022B0009827909371038093700310927303109288
:1022C00072038481958190936D0380936C03868162
:1022D000978190936F0380936E038091CA039091CE
:1022E000CB0390936503809364038091CC0390911A
:1022F000CD039093670380936603808191819093CF
:102300006903809368038281938190936B03809328
:102310006A0380E893E0909349038093480381E146
:102320000E945B0480959095009711F48FEF9FEFCA
:1023300090937303809372037AC486E00E945B04D7
:10234000019609F097C420916E0330916F0380913C
:102350006C0390916D036091640370916503E0914B
:102360006603F0916703C5E5D4E0498D4423A9F0E5
:10237000AC81BD812A173B0781F4AE81BF818A17EA
:102380009B0759F4A881B9816A177B0731F4AA81A8
:10239000BB81EA17FB0709F46FC16E9644E0CD3CA0
:1023A000D40719F7809179038F738230E1F4309369
:1023B000EF022093EE0280E0843099F0E82FF0E005
:1023C000EE0FFF1FE353FB4F408151818F5F2417B6
:1023D000350791F71092D50480E0C0E0D0E09EE18F
:1023E0007CC08093D5048091790382FD43C484E14D
:1023F0008093790388E290E09093470380934603AB
:1024000080E5809378033091730380917703809304
:10241000730320917203809176038093720320935B
:10242000760390917103809175038093710390936B
:102430007503809170038093D50440917403409399
:102440007003809374033F5F3093770331110DC0A5
:102450002F5F20937603211108C09F5F909375032F
:10246000911103C08F5F8093740380916C039091EE
:102470006D039093EF028093EE0220916E033091F2
:102480006F0330936D0320936C0390936F038093DD
:102490006E03809164039091650390936903809328
:1024A0006803809166039091670390936B03809318
:1024B0006A038091CA039091CB0390936503809344
:1024C00064038091CC039091CD0390936703809334
:1024D000660391C3473099F08F5F8430F1F0282F65
:1024E00030E0929FF001939FF00D1124EB5AFB4FC7
:1024F000418D4111EFCF8093D504EF0110C020979B
:1025000021F0528D4A8D451738F7929FE001939F35
:10251000D00D1124CB5ADB4FDFCF8093D504209709
:1025200009F4A8C3D093E602C093E50283E08A8F42
:10253000888F1E8A84E08F8B1B8E80916E03909112
:102540006F039D838C8380916C0390916D039F83B7
:102550008E83809164039091650399838883809131
:102560006603909167039B838A8381E0898F8091C2
:10257000E0028C878091E1028D878091E2028E8754
:102580008091E3028F8781E090E0998B888B809126
:1025900073038B87809172038A8780917103898787
:1025A00080917003888781E090E00E9446218091AD
:1025B0007803982F907F913508F444C082958F70EE
:1025C00090E00597880F991F880F991F2091ED02C1
:1025D000E12FF0E0E817F9078CF5E65BFC4F26A940
:1025E000211105C01093D5041092ED022BC02130AB
:1025F00011F41F5FEDCF2230E1F437A93430C9F474
:102600001093D5042093ED0280AD90E0982F882799
:1026100021AD822B9093EF028093EE02813062E035
:10262000960710F080E092E09B8B8A8B9D8B8C8BC1
:1026300009C037A9332311F0130FCACF1093D50463
:102640002093ED0280E18093790380917903826089
:102650008093790382E08093800394E090938103D8
:1026600080938203109283038CE290E0909347035F
:102670008093460380E66DC2D093E602C093E502E4
:102680001092E40230917903132F147032FF03C0CB
:10269000198E80E209C22091780322952F70220FB3
:1026A000220F2093D50480914603909147034497CD
:1026B000821B910990934703809346034F704230E9
:1026C00021F4232F2F732231C9F0892B19F4832F82
:1026D0008370A1F0909170038885981330C2909117
:1026E0007103898598132BC2909172038A85981380
:1026F00026C2909173038B85981321C234FF49C081
:10270000688979896115710509F443C0CE010C9679
:102710000E941021309174038091E902381339C06E
:10272000209175038091EA02281333C090917603BB
:102730008091EB0298132DC0809177034091EC02B9
:10274000841327C03C872D879E878F878B8D8111AF
:1027500019C09E89888D2A8D821B292F2695269542
:102760002695821B980F9E8B87FD81952F89322F8E
:1027700036953695231B820F8F8B96959695969559
:10278000890F888F81E08093E402888D8A8F198A6F
:10279000188A298DE22FEF708E2F90E0FC0131977F
:1027A000E830F10508F066C28827EE58FF4F8F4FDA
:1027B0000C94B8278091E40280FF5CC283E0898F8B
:1027C00080E48093E402198A188A809146039091EC
:1027D0004703009709F4FBC022E42093E4020E941F
:1027E0004621F5C08091E40280FF6DC0809179039D
:1027F0008F73823109F067C080917803982F907FA2
:10280000913508F444C082958F7090E00597880F49
:10281000991F880F991F2091ED02E12FF0E0E81732
:10282000F9078CF5E65BFC4F26A9211105C0109332
:10283000D5041092ED022BC0213011F41F5FEDCFB3
:102840002230E1F437A93430C9F41093D504209331
:10285000ED0280AD90E0982F882721AD822B9093D8
:10286000EF028093EE02813072E0970710F080E073
:1028700092E09B8B8A8B9D8B8C8B09C037A933236D
:1028800011F0130FCACF1093D5042093ED0283E00B
:10289000898F8091700388878091710389878091E7
:1028A00072038A87809173038B8781E090E00E9496
:1028B000462182E48093E402198A188A1092470321
:1028C0001092460384C080E28093E4022ED9198ED0
:1028D0008ACD8091790380FF27C024FD25C0888997
:1028E0009989892B09F0C6C18091460390914703CD
:1028F00001960E9446218091E402982F9061909366
:10290000E4022091460330914703232B19F08261A2
:102910008093E4020AD981E090E0998B888B88E06B
:10292000898F1B8E81E10CC185FF1DC080917E03C4
:1029300090E0982F882730917F03832B40914803A4
:1029400050914903480F591F50934903409348033E
:102950004091460350914703BA01681B790B70936D
:102960004703609346034091460350914703411546
:10297000510551F024FD08C09091E40292609093BB
:10298000E402CA010E94462180917A0390E0982FC8
:10299000882720917B03820F911D9093EF028093F3
:1029A000EE022C893D892817390710F0892B21F474
:1029B0003093EF022093EE028091EE029091EF02AD
:1029C0009B8B8A8B8091E402837009F453C110922F
:1029D000450310924403A9D88091E40285FF07C003
:1029E0001092450310924403198E84E1A9C084FF1C
:1029F0000AC0109245031092440381E090E0998B45
:102A0000888B84E08DCF20914403309145032115BC
:102A10003105E1F080FF02C0198A188A88899989F6
:102A2000009781F48A899B898217930720F49093F9
:102A30004503809344038091440390914503998B0F
:102A4000888B04C090934503809344031B8E809130
:102A500042039091430390934903809348038091EC
:102A6000440390914503892B59F0888999890097EF
:102A700039F08896909347038093460388E10BC012
:102A80008091E40281FFF6C088E290E090934703D2
:102A90008093460380E1809379035AC08091E402D9
:102AA00080FFE8C0198E80E18093E4023ED8E2C046
:102AB0008091460390914703009711F00E944621B0
:102AC000909179038091E40290FF0BC080FF06C0D3
:102AD00087E0898F1A8E198A188A19C086E0898F33
:102AE00016C080FF1DC085E0898F198A188AC2C070
:102AF0008091460390914703009711F00E94462170
:102B00008091790380FF0CC087E0898F1A8E81E065
:102B100090E00E94462180E18093E40206D80FC035
:102B20008091460390914703892B49F4A3C080917B
:102B3000E40280FF9FC087E0898F1A8E9BC080E1EE
:102B40008093790388E290E0909347038093460353
:102B500080E58093780388858093740389858093CA
:102B600075038A85809376038B85809377038C85A4
:102B7000809370038D85809371038E85809372039B
:102B80008F858093730386E0809361038C819D81A0
:102B900090936D0380936C038E819F8190936F035C
:102BA00080936E038091CA039091CB039093650349
:102BB000809364038091CC039091CD03909367033D
:102BC0008093660388819981909369038093680359
:102BD0008A819B8190936B0380936A03898D84FF24
:102BE00005C010927B0310927A0305C082E08093A7
:102BF0007A0310927B0380E4809360038091460304
:102C00009091470390935A0380935B0310927F0344
:102C100010927E0310927D0310927C0386E00E9446
:102C20005B048095909590937D0380937C0385E46D
:102C3000809358031092590310925F0310925E0321
:102C40008091E7029091E80201969093E8028093C8
:102C5000E70290935C0380935D03109263031092EC
:102C600062030E94E504809590959093630380939E
:102C7000620304C010924703109246031092E402CC
:102C8000DF91CF911F91FF90EF9008950F931F93C5
:102C9000CF93DF93DC0120915304309154042F5FD4
:102CA0003F4F21158DE7380710F020E030E1522F1B
:102CB000432FE7E2F4E080E0843041F0C481D58125
:102CC0008F5F3B96C417D507B9F7E9CF309354040B
:102CD0002093530490E08BE09430D1F0292F30E022
:102CE00041E0490F829FF001839FF00D1124E95DBF
:102CF000FB4FEF01249604811581012B39F4909349
:102D0000D504309741F480E090E02EC0942FE4CFBA
:102D10009093D504F8CF8091530490915404982750
:102D2000892798279983888377836683109729F466
:102D300010821182128213820BC08D919C91119787
:102D40009183808312968D919C91139793838283B4
:102D50008BE0829FD001839FB00D1124A95DBB4FF2
:102D600080E418968C93CF01DF91CF911F910F9142
:102D70000895CF93DF93EC01A7D6209146033091BD
:102D800047039091DC022A32310521F41092DD02D2
:102D90009D7F03C01D821C8292609093DC02DF91B4
:102DA000CF910C94F504CF92DF92EF92FF920F93A4
:102DB0001F93CF93DF936C017A018B01C0E0D0E0C9
:102DC000CE15DF0589F0D8016D918D01D601ED9109
:102DD000FC910190F081E02DC6011995892B11F429
:102DE0007E0102C02196ECCFC701DF91CF911F91E8
:102DF0000F91FF90EF90DF90CF900895FC01538DDD
:102E0000448D252F30E0842F90E0821B930B5417C4
:102E100010F0CF96089501970895FC01918D828D51
:102E2000981761F0828DDF01A80FB11D5D968C911E
:102E3000928D9F5F9F73928F90E008958FEF9FEF29
:102E40000895FC01918D828D981731F0828DE80FE5
:102E5000F11D858D90E008958FEF9FEF0895FC019F
:102E6000918D228D892F90E0805C9F4F821B91096C
:102E70008F73992708958CEE95E0F1DF21E0892B7F
:102E800009F420E0822F0895FC01848DDF01A80F52
:102E9000B11DA35ABF4F2C91848D90E001968F7382
:102EA0009927848FA689B7892C93A089B1898C91A1
:102EB00080648C93938D848D981306C00288F38967
:102EC000E02D80818F7D80830895EF92FF920F9394
:102ED0001F93CF93DF93EC0181E0888F9B8D8C8DC6
:102EE000981305C0E889F989808185FD23C0F62EF5
:102EF0000B8D10E00F5F1F4F0F731127E02E8C8D8D
:102F0000E8120BC00FB607FCFACFE889F989808177
:102F100085FFF5CFCE01B8DFF2CF8B8DFE01E80F34
:102F2000F11DE35AFF4FF0820B8FEA89FB89808104
:102F3000806207C0EE89FF896083E889F989808112
:102F40008064808381E090E0DF91CF911F910F91A9
:102F5000FF90EF900895CF93DF93EC01888D882345
:102F6000C1F0EA89FB89808185FD05C0A889B989FE
:102F70008C9186FD0EC00FB607FCF5CF808185FFD2
:102F8000F2CFA889B9898C9185FFEDCFCE017CDF86
:102F9000E8CFDF91CF91089580E090E0892B19F080
:102FA0006ADF811125C080E090E0892B41F080E04C
:102FB00090E0892B21F00E94000081111CC080E06C
:102FC00090E0892B41F080E090E0892B21F00E9475
:102FD0000000811113C080E090E0892BA1F080E017
:102FE00090E0892B81F00E94000081110AC00895B1
:102FF0000E940000D8CF0E940000E1CF0E94000094
:10300000EACF0C9400000895EF92FF920F931F9364
:10301000CF93DF93CDB7DEB7A1970FB6F894DEBF9D
:103020000FBECDBF7C01CB01BA01F7011182108226
:10303000138212821582148242E0420F8E010F5FCA
:103040001F4F0E94D524009769F0FC0101900020D9
:10305000E9F73197AF01481B590BBC01C7010E942A
:10306000F12003C0C7010E94C920A1960FB6F894B1
:10307000DEBF0FBECDBFDF91CF911F910F91FF90AB
:10308000EF9008956115710579F0FB010190002022
:10309000E9F73197AF01461B570BDC01ED91FC912D
:1030A0000280F381E02D199480E090E008954F9222
:1030B0005F926F927F92EF92FF920F931F93CF9345
:1030C000DF93CDB7DEB7A1970FB6F894DEBF0FBE82
:1030D000CDBF7C01FA01CB0119A2223008F42AE00D
:1030E0008E010F5D1F4F422E512C612C712CBF01A0
:1030F000A30192010E949627F901CA01015011090A
:103100006A3014F4605D01C0695CD8016C93232BB4
:10311000242B252B61F7B801C701B4DFA1960FB6A8
:10312000F894DEBF0FBECDBFDF91CF911F910F91FD
:10313000FF90EF907F906F905F904F9008958F92E7
:103140009F92AF92BF92CF92DF92EF92FF920F9336
:103150001F93CF93DF937C01EB016C0182E0C80EDB
:10316000D11C4701E5E08E0E911C00E010E0F60155
:1031700041916F0150E060E070E02AE0CE0197DFFE
:103180005C01E881F9810190F081E02D6EE2CE01D1
:1031900019958A0D9B1D080F191FC814D90439F7FA
:1031A000F701458150E060E070E02AE0CE017FDF6A
:1031B000800F911FDF91CF911F910F91FF90EF90A2
:1031C000DF90CF90BF90AF909F908F9008950E9416
:1031D000D1291F920F920FB60F9211240BB60F92A6
:1031E0002F933F934F935F936F937F938F939F930F
:1031F000AF93BF93EF93FF938CEE95E045DEFF9185
:10320000EF91BF91AF919F918F917F916F915F915E
:103210004F913F912F910F900BBE0F900FBE0F90CB
:103220001F9018951F920F920FB60F9211240BB694
:103230000F922F938F939F93EF93FF93E091FC0551
:10324000F091FD058081E0910206F091030682FD78
:1032500012C09081809105068F5F8F7320910606C2
:10326000821751F0E0910506F0E0E451FA4F958F96
:103270008093050601C08081FF91EF919F918F910E
:103280002F910F900BBE0F900FBE0F901F901895AF
:10329000362F90E0FC01E451FD4F4491FC01EE58C3
:1032A000FD4F2491FC01E45DFD4F9491992309F4B5
:1032B0006BC0442309F455C050E0FA013197E23164
:1032C000F10508F04EC08827E658FF4F8F4F0C9449
:1032D000B827809180008F7707C0809180008F7D14
:1032E00003C080918000877F809380003AC084B5BE
:1032F0008F7702C084B58F7D84BD33C08091B000CC
:103300008F7703C08091B0008F7D8093B00029C07B
:10331000809190008F7707C0809190008F7D03C0CF
:1033200080919000877F809390001BC08091A000C7
:103330008F7707C08091A0008F7D03C08091A0008F
:10334000877F8093A0000DC0809120018F7707C0F8
:10335000809120018F7D03C080912001877F809321
:103360002001E92FF0E0EE0FFF1FEE52FD4FA59177
:10337000B4918FB7F894EC91311103C020952E23AE
:1033800001C02E2B2C938FBF0895CF93DF9390E035
:10339000FC01EE58FD4F2491FC01E45DFD4F84914A
:1033A000882361F190E0880F991FFC01E854FD4FDC
:1033B000C591D491FC01EE52FD4FA591B4916111DC
:1033C00009C09FB7F8948881209582238883EC9167
:1033D0002E230BC0623061F49FB7F8943881822F9E
:1033E000809583238883EC912E2B2C939FBF06C05E
:1033F0008FB7F894E8812E2B28838FBFDF91CF9170
:1034000008953FB7F8948091BE039091BF03A091B7
:10341000C003B091C10326B5A89B05C02F3F19F08A
:103420000196A11DB11D3FBFBA2FA92F982F882744
:10343000820F911DA11DB11DBC01CD0142E0660F9F
:10344000771F881F991F4A95D1F708958F929F92F1
:10345000AF92BF92CF92DF92EF92FF926B017C010D
:10346000D0DF4B015C01C114D104E104F104E9F0A7
:10347000C8DFDC01CB0188199909AA09BB09883E7C
:103480009340A105B10578F321E0C21AD108E10803
:10349000F10888EE880E83E0981EA11CB11CC114AF
:1034A000D104E104F10421F7DECFFF90EF90DF902B
:1034B000CF90BF90AF909F908F9008952FB7F894C2
:1034C0006091BA037091BB038091BC039091BD03DE
:1034D0002FBF08951F920F920FB60F9211242F93B2
:1034E0003F938F939F93AF93BF938091BA03909133
:1034F000BB03A091BC03B091BD033091B90323E09D
:10350000230F2D3720F40196A11DB11D05C026E81B
:10351000230F0296A11DB11D2093B9038093BA0316
:103520009093BB03A093BC03B093BD038091BE03F3
:103530009091BF03A091C003B091C1030196A11D5A
:10354000B11D8093BE039093BF03A093C003B093BB
:10355000C103BF91AF919F918F913F912F910F9098
:103560000FBE0F901F9018958823E9F0A6EDB4E0E8
:1035700025E014969C91149798130DC095E0899FAF
:10358000F0011124EA52FB4F848114968C9313822C
:10359000128214820895992331F0299FD0011124B9
:1035A000AA52BB4FE6CF08950F931F93CF93DF939B
:1035B0001F92CDB7DEB7182F062F60E085E3498351
:1035C00067DE802F8F71812B8EBD49810DB407FE80
:1035D000FDCF4EBD0DB407FEFDCF61E085E30F903A
:1035E000DF91CF911F910F9153CE1F93CF93DF9314
:1035F000182F1076C12FD0E02091000230E0C217C2
:10360000D30779F043E06FE180EACEDFAE0185E0D9
:10361000559547958A95E1F76FE180E8C5DF1093EE
:103620000002DF91CF911F9108951F93CF93DF93F5
:103630001F921F92CDB7DEB7182F69837A83D5DF2B
:103640004981612F80E4B0DF61E0610F7A81472F0B
:1036500080E40F900F90DF91CF911F91A5CF1F9322
:10366000CF93DF931F92CDB7DEB7182F6983BDDFED
:103670004981612F80E40F90DF91CF911F9194CF0A
:10368000CF93DF93C82FD62F60E085E301DE8D2F27
:103690008F71C82BCEBD0DB407FEFDCF1EBC0DB47F
:1036A00007FEFDCFD7FD07C061E085E3F1DD8EB5F4
:1036B000DF91CF9108951EBC0DB407FEFDCFF4CF6E
:1036C000CF93DF93EB01682F84EDC9DFBE0186ED58
:1036D000ACDFC7E3D0E08AEE88DF6AEE80E0D0DFBF
:1036E00080FF04C0CE010197F1F7F5CFDF91CF91B4
:1036F0000895CF93C62FBC0182E097DF60E085E399
:10370000C7DD8AE78EBD0DB407FEFDCFCEBD0DB47B
:1037100007FEFDCF61E085E3CF91BACDBC0180E02B
:1037200084DF60E085E3B4DD8AE38EBD0DB407FE7F
:10373000FDCF1EBC0DB407FEFDCF61E085E3A8DD23
:103740008EB50895CF92DF92EF92FF920F931F9361
:10375000CF93DF936C018B014130510569F4CB01AC
:10376000DDDF682FC601DF91CF911F910F91FF9090
:10377000EF90DF90CF90BDCFEA01C60FD71F7E013B
:1037800081E0E81AF10880E150DFB60184E14DDF05
:103790000115184038F4E11488E0F80618F07E01AD
:1037A00088E0F81AB70182E140DF40E16FE180EA8A
:1037B000FBDE40E26FE180E8F7DE6FE180E060DF92
:1037C00085FDFBCFDF91CF911F910F91FF90EF907F
:1037D000DF90CF900895CF92DF92EF92FF920F93F8
:1037E0001F93CF93DF938C016091D6047091D7041F
:1037F0006150784EC12C98E1D92EE6EDF4E080E0DE
:10380000C0E0D0E045E09481992349F0499F9001C0
:1038100011242A523B4FD9012D913C9101C09B01AB
:10382000E080F1802E193F090280F381E02D2E1BEC
:103830003F0B2017310739F4B5E08B9FE0011124CD
:10384000CA52DB4F48C00217130748F42C153D0538
:1038500030F4489FE0011124CA52DB4F69019111F5
:1038600007C02097C1F5C6EDD4E085E0D82E1DC075
:10387000499FF0011124EA52FB4F892FC4CFEA80FF
:10388000FB8028813981E20EF31ED89EE0011124CD
:10389000CA52DB4F68817981E616F70631F04A811A
:1038A0005B81C7014FDFF982E8828C818111E7CF0C
:1038B0002091D6043091D70488819981281B390B37
:1038C0008A819B81281B390B2150384E20173107E4
:1038D00010F480E01AC0EBEDF4E091E02281338136
:1038E000232B29F035969F5F9533C1F7F2CF4A819C
:1038F0005B8128813981240F351F31832083138315
:1039000002838C8184839C83892FDF91CF911F91C7
:103910000F91FF90EF90DF90CF900895CF92DF92BC
:10392000EF92FF920F931F93CF93DF937B018A0156
:10393000690125E0829FC0011124EC01CA52DB4FCE
:10394000688179816E0D7F1D82E06FDE0A80DB81E8
:10395000C02DCE19DF09CC16DD0608F4E60160E0C3
:1039600085E396DC8AE78EBD0DB407FEFDCFC80166
:103970008C0F9D1F0817190741F0F80121918F0145
:103980002EBD0DB407FEFDCFF5CF61E085E380DCF1
:10399000CE01DF91CF911F910F91FF90EF90DF90BB
:1039A000CF900895EF92FF920F931F93CF93DF93E1
:1039B0008B017A018F3FC9F025E0829FE00111243D
:1039C000CA52DB4F02C0CEEAD3E088819981B801A8
:1039D000680F791F80E029DE8A819B81801B910B13
:1039E000E816F90690F4C70110C08091AE039091DB
:1039F000AF03860F971F811528E0920720F3BC01C3
:103A00006F5F7740CEEAD3E0E5CFDF91CF911F9192
:103A10000F91FF90EF900895882381F08F3F29F454
:103A20008091B0039091B103089595E0899FF001D2
:103A30001124EA52FB4F82819381089580E090E047
:103A400008956091DF057091E0056115710519F029
:103A50006150710902C06FEF77E08CE0E6CD0F9303
:103A60001F93DB01E42FA80190E0EF3FF9F065E040
:103A7000E69FF0011124EA52FB4F02C0EEEAF3E0A8
:103A80000190F081E02D2E0F3F1F65E0689FF0014F
:103A9000699FF00D1124EA52FB4F80819181B90199
:103AA0008A0F9B1F4FDE1F910F91CBCFE091AE038A
:103AB000F091AF03E20FF31FE11568E0F607F0F2B3
:103AC0009F012F5F3740E1CF809168039091690398
:103AD0008F3F2FEF920759F420916A0330916B03C7
:103AE0002F3F3F4F21F486E0E7E5F2E05AC02091F6
:103AF000CA033091CB03282739274091C203509144
:103B0000C30324233523232B91F460916A0370911E
:103B10006B032091CC033091CD03262737274091AA
:103B2000C4035091C50324233523232B89F08091AE
:103B3000C6039091C7039093B6038093B503809119
:103B4000C8039091C9039093B8038093B70308C04A
:103B50009093B6038093B5037093B8036093B70353
:103B60002091B5033091B6034091B7035091B8034B
:103B700080E09BE001C08F5F883071F1989FF00179
:103B80001124E253FC4F608171812617370799F7A2
:103B9000628173814617570771F780932604349624
:103BA00086E0AAE4B3E001900D928A95E1F786E001
:103BB000E1EEF5E0A0E5B3E001900D928A95E1F722
:103BC00088E090E0909357038093560380914603DA
:103BD000909147030E9667C08093260446E050E01C
:103BE0006FEF70E08AE493E00E94DE2986E0EAE667
:103BF000F3E0DF01282F1D922A95E9F7E1EEF5E0C9
:103C0000A0E5B3E0982F01900D929A95E1F7E1EECF
:103C1000F5E0A0E6B3E0982F01900D929A95E1F7B8
:103C20002091B5033091B603309371032093700354
:103C30002091B7033091B80330937303209372033C
:103C40002091CA033091CB0330936703209366031E
:103C50002091CC033091CD03309369032093680306
:103C600020E031E030935F0320935E0330935903EB
:103C70002093580328E030E030935B0320935A03ED
:103C800080935C0384E080935D0388E096E09093EA
:103C900057038093560380E893E090934903809301
:103CA00048038AE290E09093470380934603089587
:103CB000EF92FF920F931F93CF93DF939C01FB0131
:103CC0001092260490E08BE0983031F1899F7001CA
:103CD0001124E701C253DC4F6881798161157105B8
:103CE000C9F04A815B8141155105A1F0D9010D91BF
:103CF0001C9111970617170769F412966D917C9124
:103D000013976417750731F490932604D701AE52C8
:103D1000BC4F2AC09F5FD8CF90E08BE0983091F0E5
:103D2000899FE0011124C253DC4F48815981452B02
:103D300039F44A815B81452B19F4909326040AC01B
:103D40009F5FECCF1092B4031092B303109226043D
:103D5000CEECD3E0D9014D915D916D917C91DE0166
:103D60004D935D936D937D9386E001900D928A95BE
:103D7000E1F71A86DF91CF911F910F91FF90EF909D
:103D800008959C01AB01709345036093440316169C
:103D9000170654F480914203909143032817390782
:103DA00019F0B9010C94D52908950F931F93CF935F
:103DB000DF93EC0188819981009729F02A813B816A
:103DC0002617370788F48B016F5F7F4F0E94ED281D
:103DD000009761F0998388831B830A832C813D813E
:103DE000232B11F4FC01108281E001C080E0DF91FF
:103DF000CF911F910F9108950F931F93CF93DF934E
:103E0000EB0160E070E0CEDD8C0160E085E340DA3C
:103E10008AE38EBD0DB407FEFDCFCE01800F911F4A
:103E2000C817D90739F01EBC0DB407FEFDCF2EB55B
:103E30002993F6CF61E085E32BDAC801DF91CF91BA
:103E40001F910F9108959F92AF92BF92CF92DF92F0
:103E5000EF92FF920F931F93CF93DF9300D000D088
:103E6000CDB7DEB78C016B017A01590127DBDC018C
:103E7000CB0186509F4FAF4FBF4F8093E705909384
:103E8000E805A093E905B093EA0589E091E0E6ED45
:103E9000F4E0DF019C011D9221503040E1F781E008
:103EA00098E09093D7048093D60461E085E36DDABF
:103EB00061E085E3EDD961E083E367DA61E084E303
:103EC00064DA60E082E361DA61E085E35EDA60E0B3
:103ED00083E3DED960E084E3DBD980E58CBD8DB57A
:103EE00081608DBD4FEF60E08FEF5EDB62E370E0DD
:103EF00080E090E0ABDA1092E0051092DF0560E020
:103F000070E088E092DB60E070E08CE08EDB6FEFC9
:103F100077E08AE08ADB61EB88E3A1DB6FE370E3A3
:103F200088E283DB69EF77EF80E37FDB6DE070E0B1
:103F300080EC7BDB42E362EC80E836DB62E17CE034
:103F400086EC73DB62E184EC8ADB6CED75E08AEC75
:103F50006CDB6091010284EE82DB6091020285EEEF
:103F60007EDB6091030282EE7ADB6091040283EED5
:103F700076DB6091050280EE72DB6091060281EED5
:103F80006EDB60E071E080E19BDB8FE12EDB40ECDB
:103F90006BE180E809DB44E06FE180E805DB66E780
:103FA00074E084E18DDB809101028093E1058091D2
:103FB00002028093E205809103028093E3058091E1
:103FC00004028093E405809105028093E5058091C9
:103FD00006028093E60580E0E82FF0E0EE0FFF1F79
:103FE000E353FB4F118210828F5F8430A9F780E08A
:103FF0009EE1989FF0011124EB5AFB4F118E8F5FC9
:104000008430B9F780E094E0909354048093530493
:1040100080E09BE0989FF0011124E95DFB4F158241
:1040200014828F5F8430B1F78093D50410922604F8
:104030009BE080912604883068F4989FF001112459
:10404000E253FC4F10821182128213828F5F8093A1
:104050002604EFCFD50112969C90129713965C918F
:1040600013971496BC91F5019581F701A281838184
:10407000B4804581F601C280D380E480F580F801E8
:10408000248130E0322F22276581262B32272327F7
:104090003227628170E0762F66271381612B7627A5
:1040A000672776277093CB036093CA033093CD03C1
:1040B0002093CC03282F30E03A2B382723273227B0
:1040C0003093C7032093C603242F30E03B293427C5
:1040D000232732273093C9032093C803252F30E0CC
:1040E00039293527232732273093C3032093C2036E
:1040F000892F90E09B2B9827892798279093C503B9
:104100008093C403C0928B06D0928C06E0928D06F9
:10411000F0928E0626960FB6F894DEBF0FBECDBF86
:10412000DF91CF911F910F91FF90EF90DF90CF9093
:10413000BF90AF909F900895EF92FF920F931F93BF
:10414000CF93DF93FC01248135816115710511F452
:1041500080E018C041155105A1F07B01EC018A01F6
:10416000020F131FB80121DE882391F328813981C2
:104170008C819D81B701820F931F0E94E5291D83C9
:104180000C8381E0DF91CF911F910F91FF90EF9011
:104190000895CF93DF93EC0188819981009709F00E
:1041A00084D7198218821D821C821B821A82DF9199
:1041B000CF910895CF93DF93EC016115710559F00C
:1041C000FB0101900020E9F73197AF01461B570B27
:1041D000B3DF811102C0CE01DCDFCE01DF91CF91D0
:1041E0000895EF92FF920F931F93CF93DF93EC010B
:1041F0007B018A01BA01D9DD811103C0CE01C9DF7B
:1042000007C01D830C83B701888199810E94E5292D
:10421000CE01DF91CF911F910F91FF90EF90089504
:10422000FC012381260F2093EC02A72FBB2792814C
:104230009A0F9093EB0231813093EA0240814093D0
:10424000E902E92FF0E0EA17FB0748F481E0830F69
:104250008093EA02811103C04F5F4093E90230E08E
:1042600077272617370788F49F5F9093EB02911109
:104270000CC08091EA028F5F8093EA02811105C031
:104280008091E9028F5F8093E9020895CF93DF93D5
:10429000C091E502D091E602BC01CE010896C0DFD4
:1042A000E9EEF2E0808188878181898782818A872F
:1042B00083818B87DF91CF910895CF93DF93CDB723
:1042C000DEB7AA970FB6F894DEBF0FBECDBF7894C5
:1042D00084B5826084BD84B5816084BD85B582600B
:1042E00085BD85B5816085BD80916E0081608093BC
:1042F0006E00109281008091810082608093810025
:104300008091810081608093810080918000816034
:10431000809380008091B10084608093B10080918F
:10432000B00081608093B0008091910082608093A2
:104330009100809191008160809391008091900024
:104340008160809390008091A10082608093A100A1
:104350008091A10081608093A1008091A000816084
:104360008093A0008091210182608093210180913F
:1043700021018160809321018091200181608093DF
:10438000200180917A00846080937A0080917A0085
:10439000826080937A0080917A00816080937A00B5
:1043A00080917A00806880937A001092C1000FE9B2
:1043B00012E01A83098380919D0690919E06A09138
:1043C0009F06B091A0068B839C83AD83BE83188B20
:1043D0000F878091A3069091A406A091A506B091A5
:1043E000A606898B9A8BAB8BBC8B1E8B0D8B809119
:1043F000A9069091AA06A091AB06B091AC068F8B4E
:10440000988FA98FBA8F1C8F0B8F8091AF069091D8
:10441000B006A091B106B091B2068D8F9E8FAF8F7E
:10442000B8A39E012F5F3F4FAE01415F5F4FBE01BA
:104430006B5E7F4FCE014B9606DD85E996E00E94CC
:10444000C40BE091FC05F091FD0582E08083E091D2
:10445000F805F091F9051082E091FA05F091FB055D
:104460008FEC808310920406E0910006F091010623
:1044700086E08083E091FE05F091FF0580818061F8
:104480008083E091FE05F091FF0580818860808344
:10449000E091FE05F091FF05808180688083E091C6
:1044A000FE05F091FF0580818F7D808367EA72E0D1
:1044B0008CEE95E00E9442183091CA032091CB0304
:1044C0009091CC038091CD031A8309833B832C8385
:1044D0009D838E836CEE75E0CE0101960E949F183D
:1044E0006CEB72E08CEE95E00E94421848EE842E50
:1044F00043E0942EA12CB12CC12C50ECD52E59E7C1
:10450000E52E54ECF52E9E012F5D3F4F38A72FA3CB
:104510000E946D054091990650919A06E0EFF2E0F5
:104520008181882351F1608164FF20C0262F30E013
:104530002F707EE1729FC001739F900D1124DC01EA
:10454000AB5ABB4F14968D919C9115978417950784
:1045500069F41C821B828D829E82AF82B88689E3B9
:1045600092E09A838983FE87ED8718C066FF05C0B5
:10457000868197818417950761F3719693E0E43300
:10458000F90771F61C821B828D829E82AF82B886EB
:10459000E9E3F2E0FA83E9831E861D86CE010196E7
:1045A0000E94AF0C882309F444C18091410381111A
:1045B00013C0CE0101960E94D0026FEB72E08CEE28
:1045C00095E00E9442186CEB72E08CEE95E00E9440
:1045D000421881E080934103CE0101960E949B0323
:1045E000181619060CF025C1E8EAF2E06490E2E63C
:1045F000F2E08491E82FF0E0EE0FFF1FEE5EFD4F3A
:104600000591149110923C0310923D0310923E03C9
:1046100010923F031092400361E086E30E94C519A7
:1046200060E086E30E94481962E170E080E090E07B
:104630000E94261A61E086E30E9448198BE990E007
:104640000197F1F760E086E30E94C51980E991E0E7
:10465000F8012081262119F40197D1F7EDC080E9F6
:1046600091E0F8012081262119F00197D1F7E4C0EB
:1046700038E220E8712C80E991E0F8015081562160
:1046800019F40197D1F7D8C029A73AA70E94011AB7
:104690001B012C0180E991E029A53AA5F801508180
:1046A000562119F00197D1F7C7C029A73AA70E9450
:1046B000011ADC01CB0182199309A409B50929A5C6
:1046C0003AA58997A105B10538F0E72DF0E0EC5C3B
:1046D000FC4F8085822B8087822F90E0959587956F
:1046E000009711F0282F02C0739420E8315009F090
:1046F000C2CF61E086E30E94C51961E086E30E94B3
:10470000481960913C0370E080E090E0D2D3609360
:10471000340370933503809336039093370360918D
:104720003E0370E080E090E0C4D360933803709360
:10473000390380933A0390933B03409134035091A3
:104740003503609136037091370322E0CE014B961A
:104750000E940418409138035091390360913A0344
:1047600070913B0322E0CE0145960E940418188AFE
:104770001F861A8A198A1C8A1B8A41E050E064ED60
:1047800072E0CE010F962DDD498D5A8D6D897E899F
:10479000CE010F96D1DC811103C0CE010F96F9DC5A
:1047A00066ED72E0CE010F9605DD8C014F8D58A1AC
:1047B0006B8D7C8DC1DC811102C0C801EADC68ED23
:1047C00072E0C801F7DC1AA219A21CA21BA21EA249
:1047D0001DA22FA138A58217930759F0FC01608113
:1047E00071816115710529F044815581CE01819651
:1047F000F8DC8F85988959D48D899E8956D48B8D04
:104800009C8D53D4E0919506F09196064DA15EA142
:1048100069A17AA10280F381E02D85E996E01995DE
:1048200068EE73E080E090E00E94261A89A19AA1C8
:104830003CD40E94CC176CCEC0923403D092350386
:10484000E0923603F0923703C0923803D0923903D6
:10485000E0923A03F0923B0370CFE3EBF6E08FE98E
:1048600092E0918380831282138214821582ECEE8F
:10487000F5E01382128248EE53E060E070E044837A
:1048800055836683778321E632E03183208325ECEC
:1048900030E03587248724EC30E03787268720EC0A
:1048A00030E0318B208B21EC30E0338B228B22ECFB
:1048B00030E0358B248B26EC30E0378B268B118E45
:1048C000128E138E148EE9EBF6E0918380831282B0
:1048D000138214821582EFEBF6E0918380831282BB
:1048E000138214821582E5ECF6E0918380831282B4
:1048F000138214821582E9E8F6E0918380831282A4
:10490000138214821582EBECF6E09183808312828D
:10491000138214821582EFE8F6E09183808312827D
:10492000138214821582E1EDF6E091838083128276
:10493000138214821582E7EDF6E091838083128260
:10494000138214821582EDEAF6E09183808340ECB5
:10495000428338EA338321E024835BE25583E7EA2C
:10496000F6E0918380834283338324832583E1EAC5
:10497000F6E0918380834283338324832583EBE9AC
:10498000F6E0918380838FEF828383838483158213
:10499000E5E9F6E01382128285E892E09183808354
:1049A00080E097E1958384830895EF920F931F939E
:1049B000CF93DF93E80147FD02C034E001C034E14A
:1049C000E42F440FFF0BF7FF03C0F195E195F109C8
:1049D000E32E022F2E2FAE0107D0CE01DF91CF9113
:1049E0001F910F91EF9008954F925F926F927F9277
:1049F0009F92AF92BF92CF92DF92EF92FF920F936E
:104A00001F93CF93DF93CDB7DEB729970FB6F894F6
:104A1000DEBF0FBECDBF6A01122FB02E2BE32017D1
:104A200020F0FF24F394F00E02C0BCE3FB2E0F2D08
:104A300027E0AE014F5F5F4F64D1AC018981982FB1
:104A40009970913031F0E1FC06C0E0FE06C090E2C2
:104A500005C09DE203C09BE201C090E0EE2DE07135
:104A600083FF3CC0911102C083E001C084E0811744
:104A700018F4212F281B01C020E0E1110BC0F60122
:104A8000822F30E2882319F031938150FBCFC20E80
:104A9000D11C20E0992329F0D6019C93F601319690
:104AA0006F01C6010396E2FE0AC03EE4D6013C93C4
:104AB00041E411964C93119712963C9306C03EE642
:104AC000F601308341E641833283FC01322F40E21C
:104AD000332309F442C041933150FACF82FF44C0DE
:104AE000911102C083E001C084E0811718F4212FE6
:104AF000281B01C020E0E1110BC0F601822F30E23B
:104B0000882319F031938150FBCFC20ED11C20E0D5
:104B1000992329F0D6019C93F60131966F01C601C5
:104B20000396E2FE0BC039E4D6013C933EE41196B5
:104B30003C93119736E412963C9307C039E6F60190
:104B400030833EE6318336E63283FC01322F40E289
:104B5000332319F041933150FBCFFC01E20FF11DDB
:104B600010828EEF9FEFB7C0F1E0911101C0F0E02D
:104B70006F2F70E01416150624F49A012F5F3F4F33
:104B800002C021E030E0260F371FBB2029F06B2D3B
:104B900070E06F5F7F4F02C060E070E0260F371F4C
:104BA000612F70E0261737071CF4121B212F01C05C
:104BB00020E03E2D387159F4D601322F60E23323C4
:104BC00019F06D933150FBCFC20ED11C20E0FF23B2
:104BD00031F0D6019C93B6016F5F7F4F6B01E111FD
:104BE0000BC0F601922F30E3992319F031939150C5
:104BF000FBCFC20ED11C20E09F2D940F3A81782F5D
:104C00007071A72E84FF03C0313309F49150191637
:104C100024F4993018F098E001C091E0E42F852F3A
:104C200057FF02C0E0E080E06E2F782FE0E0F0E078
:104C3000AEE29A2E3A01691A71082A01461A570AF9
:104C40000B2D10E01195019511096F3F8FEF78073B
:104C500029F4D6019C92C60101966C0146175707AC
:104C600084F0661677066CF47F01E40CF51CA1E075
:104C7000B0E0AC0FBD1FEA0EFB1ED7011196BC9031
:104C800002C090E3B92E615071093196C6010196B8
:104C90007C016017710724F0D601BC926C01D5CF5E
:104CA0006417750741F4363320F4353321F4A1102D
:104CB00002C081E3B82EF601B082F701822F90E2A4
:104CC000882319F091938150FBCFF701E20FF11D7A
:104CD000108280E090E029960FB6F894DEBF0FBEF8
:104CE000CDBFDF91CF911F910F91FF90EF90DF909B
:104CF000CF90BF90AF909F907F906F905F904F90BC
:104D00000895283008F027E03327DA01990F311D84
:104D100087FD916000966105710539F432602E5F60
:104D20003D9330E32A95E1F708959F3F30F08038B6
:104D30007105610509F03C5F3C5F3D93913008F0DF
:104D40008068911DDF93CF931F930F93FF92EF9293
:104D5000192F987F9695E92F96959695E90FFF273D
:104D6000EE58FE4F99273327EE24FF24A701E701D1
:104D700005900894079428F4360FE71EF81E491F83
:104D8000511D660F771F881F991F0694A1F7059084
:104D9000079428F4E70EF81E491F561FC11D770F10
:104DA000881F991F661F0694A1F70590079428F4A1
:104DB000F80E491F561FC71FD11D880F991F661F68
:104DC000771F0694A1F70590079420F4490F561F0A
:104DD000C71FD81F990F661F771F881F0694A9F752
:104DE00084911095177041F0D695C79557954795C2
:104DF000F794E7941A95C1F7E8E1F1E0689415900B
:104E0000159135916591959105907FE27395E11823
:104E1000F10A430B560BC90BD009C0F7E10CF11E88
:104E2000431F561FC91FD01D7EF4703311F48A959D
:104E3000E6CFE894015030F0080F0AF4002702177B
:104E400008F4202F2395022F7A3328F079E37D93FD
:104E50002A95E9F710C07D932A9589F606949795CF
:104E60006795379517951794E118F10A430B560B80
:104E7000C90BD00998F023957E9173957A3308F089
:104E800070E37C932013B8F77E9170617D9330F0CE
:104E9000839571E37D9370E32A95E1F71124EF90F8
:104EA000FF900F911F91CF91DF91992787FD9095EA
:104EB0000895E89409C097FB3EF49095809570950D
:104EC00061957F4F8F4F9F4F9923A9F0F92F96E956
:104ED000BB279395F695879577956795B795F111CB
:104EE000F8CFFAF4BB0F11F460FF1BC06F5F7F4F68
:104EF0008F4F9F4F16C0882311F096E911C077237A
:104F000021F09EE8872F762F05C0662371F096E882
:104F1000862F70E060E02AF09A95660F771F881F51
:104F2000DAF7880F9695879597F90895A1E21A2EDA
:104F3000AA1BBB1BFD010DC0AA1FBB1FEE1FFF1F3D
:104F4000A217B307E407F50720F0A21BB30BE40B8D
:104F5000F50B661F771F881F991F1A9469F76095D4
:104F60007095809590959B01AC01BD01CF0108958E
:104F7000EE0FFF1F881F8BBF0790F691E02D19944D
:104F8000CF93DF938230910510F482E090E0E091BE
:104F9000DF06F091E00620E030E0C0E0D0E030979E
:104FA00011F14081518148175907C0F0481759073E
:104FB00061F482819381209719F09B838A832BC0AF
:104FC0009093E0068093DF0626C02115310519F085
:104FD0004217530718F49A01BE01DF01EF01028066
:104FE000F381E02DDCCF2115310509F1281B390BA8
:104FF0002430310590F412968D919C911397611590
:10500000710521F0FB019383828304C09093E00635
:105010008093DF06FD01329644C0FD01E20FF31FCD
:1050200081939193225031092D933C933AC0209162
:10503000DD063091DE06232B41F4209109023091E8
:105040000A023093DE062093DD062091070230919C
:1050500008022115310541F42DB73EB740910B02EE
:1050600050910C02241B350BE091DD06F091DE0619
:10507000E217F307A0F42E1B3F0B2817390778F02F
:10508000AC014E5F5F4F2417350748F04E0F5F1F8E
:105090005093DE064093DD068193919302C0E0E0D9
:1050A000F0E0CF01DF91CF9108950F931F93CF933D
:1050B000DF93009709F48CC0FC01329713821282AF
:1050C0000091DF061091E0060115110581F42081A1
:1050D0003181820F931F2091DD063091DE06281763
:1050E000390779F5F093DE06E093DD0671C0D8014B
:1050F00040E050E0AE17BF0750F412962D913C915E
:105100001397AD012115310509F1D901F3CF9D01A7
:10511000DA013383228360817181860F971F8217A2
:10512000930769F4EC0128813981260F371F2E5F20
:105130003F4F318320838A819B8193838283452BD8
:1051400029F4F093E006E093DF0642C01396FC9347
:10515000EE931297ED01499159919E01240F351F4D
:10516000E217F30771F480819181840F951F0296F5
:1051700011969C938E938281938113969C938E9328
:105180001297E0E0F0E0D80112968D919C91139770
:10519000009719F0F8018C01F6CF8D919C91980140
:1051A0002E5F3F4F820F931F2091DD063091DE0668
:1051B0002817390769F4309729F41092E006109205
:1051C000DF0602C0138212821093DE060093DD0612
:1051D000DF91CF911F910F9108956F927F928F92DF
:1051E0009F92AF92BF92CF92DF92EF92FF920F9376
:1051F0001F93CF93DF93EC01009781F4CB01DF91F4
:10520000CF911F910F91FF90EF90DF90CF90BF90C3
:10521000AF909F908F907F906F90B2CEFC01E60F81
:10522000F71F9C0122503109E217F30708F4A8C0C8
:10523000D9010D911C91119706171707A8F0053099
:10524000110508F49BC0C80104978617970708F456
:1052500095C002501109061B170B019311936D9312
:105260007C93CF0122DF8AC05B01A01AB10A4C01F6
:10527000800E911EA091DF06B091E00640E050E064
:10528000E12CF12C109709F44AC0A815B905D1F505
:105290006D907C901197630182E0C80ED11CCA14F6
:1052A000DB0480F1A3014A195B096A0182E0C80EA0
:1052B000D11C1296BC9012971396AC91B5E0CB1608
:1052C000D10440F0B282A38351834083D9016D930E
:1052D0007C930AC00E5F1F4FC301800F911FF9011D
:1052E00091838083EB2DFA2FE114F10431F0D70183
:1052F0001396FC93EE93129741C0F093E006E0936F
:10530000DF063CC08D919C9111974817590708F40E
:10531000AC017D0112960D90BC91A02DB3CF809170
:10532000DD069091DE0688159905E1F446175707CA
:10533000C8F48091070290910802009741F48DB75C
:105340009EB740910B0250910C02841B950BE817FD
:10535000F907B0F4F093DE06E093DD06F9017183FE
:1053600060830CC0CB010CDE7C01009749F0A801E2
:10537000BE011BD0CE0199DEC70104C0CE0102C020
:1053800080E090E0DF91CF911F910F91FF90EF901F
:10539000DF90CF90BF90AF909F908F907F906F9055
:1053A000089581E090E0F89417C0FB01DC0102C091
:1053B00001900D9241505040D8F70895DC0101C092
:1053C0006D9341505040E0F70895FB01DC010190DE
:0C53D0000D920020E1F70895F894FFCF43
:1053DC00FFDEADBEEFFEED0000E106800000000038
:1053EC0000E901CA038E02570FE007CC01730735A1
:1053FC000406021304F707E20AE203E9079407FF25
:10540C0001CD0EBD0E000000009C0C980C8E02D03D
:10541C00029B0343029102E00C550BFE02C40C717B
:10542C0002AF0C5F028302FFFFFFFFFFFF000000D3
:10543C00006517D316FE16AB172F170D1721170083
:10544C00000000E718D3168E028D02E718E718E764
:10545C0018000000000802580C8E028D02C40B00CC
:10546C00000000E718D3168E028D02000000009F8A
:10547C001800000000E718436861742073657276A9
:10548C00657220616464726573733A000D0A00578B
:10549C006520686176652061206E657720636C6994
:0A54AC00656E74007B002C007D008B
:00000001FF
